:020000040000FA
:10000000E01200209D010000B7010000B9010000CE
:1000100000000000000000000000000000000000E0
:10002000000000000000000000000000BB01000014
:100030000000000000000000BD010000BF01000042
:10004000C10100002D0B00002D0C0000C1010000BB
:10005000C101000000000000C1010000C10100005A
:10006000C1010000C1010000150C0000C101000029
:10007000C1010000C1010000C1010000C101000078
:10008000C1010000C1010000C1010000C101000068
:10009000C1010000C1010000C1010000C101000058
:1000A000C1010000C10100000000000000000000CC
:1000B0000000000000000000000000000000000040
:1000C00000F002F800F03EF80CA030C80838241800
:1000D0002D18A246671EAB4654465D46AC4201D180
:1000E00000F030F87E460F3E0FCCB6460126334274
:1000F00000D0FB1AA246AB463343184760180000F5
:1001000080180000103A02D378C878C1FAD8520794
:1001100001D330C830C101D504680C6070470000BD
:100120000023002400250026103A01D378C1FBD813
:10013000520700D330C100D50B6070471FB51FBDFB
:1001400010B510BD00F0BEFC1146FFF7F7FF00F040
:10015000F7FF00F0D6FC03B4FFF7F2FF03BC00F09A
:10016000DDFC000070B505460C46164602E00FCCDB
:100170000FC5103E102EFAD2082E02D303CC03C5B1
:10018000083E042E07D301CC01C5361F03E02178B9
:100190002970641C6D1C761EF9D270BD03210C48B9
:1001A00002680A4302600B4802680A4302600A4878
:1001B00080470A480047FEE7FEE7FEE7FEE7FEE766
:1001C000FEE7000006480749074A084B7047000051
:1001D0002405004054050040DD0B0000C100000074
:1001E000E0060020E0120020E00A0020E00A0020E3
:1001F000F8B5042A2CD3830712D00B78491C03705E
:10020000401C521E83070BD00B78491C0370401C06
:10021000521E830704D00B78491C0370401C521EE9
:100220008B079B0F05D0C91ADF002023DE1B08C9EE
:100230000AE0FFF797FFF8BD1D4608C9FD401C46C0
:10024000B4402C4310C0121F042AF5D2F308C91A77
:10025000521EF0D40B78491C0370401C521EEAD485
:100260000B78491C0370401C012AE4D40978017002
:10027000F8BD0378C2781946437812061B02194369
:100280008378C0781B04194311430902090A000648
:1002900008437047020A08704A70020C8A70020E06
:1002A000CA70704770477047704700000246C80F19
:1002B000C00781434B0030B54B405B009B0D20D005
:1002C0001923DB06C91801231B05994220DB0324EF
:1002D000A40704251346AB400BD3002B04D1EB0637
:1002E00013409B00E34204D4012464070023121945
:1002F0005941FF231B0599420BD2C9000143500FFE
:1003000009E0CB0204D501430803024305D00548A8
:1003100030BDFF21C905084330BD08460721090546
:10032000884330BD0000C07FF0B5F94D0C091E09AF
:100330002C402E402F468BB0A7437DD0B543FCD038
:10034000002E7AD0002CFCD00D465D40ED0F2543E9
:10035000AC1BFF25AD0464190894C502440DC90205
:100360002143500DDC0204430120C0070143044334
:10037000D2020191200C110C00958C4601042346F9
:100380008B430A9161460904E24D8A430991010AAF
:100390007D4449198039097805464D4301266D1879
:1003A000F605751B6943C90C640B891C4C43641822
:1003B000B5012C1B250C2E04B4434C434D43210C9A
:1003C000691889090591009DE90701D00121C90734
:1003D00004912C4601996708CD072F434C08059DD1
:1003E000E10B4D432D0C29466646754302950D469B
:1003F00045432E46029D7D1BB44100950D465D434D
:1004000001942C0C2F040D465543AE462D0C3D4354
:10041000029503947546049C2D04641B049406D233
:10042000029C039D641C002675410395029401AC57
:1004300070CC009F7D1B01E03EE162E1B441090404
:100440000095079101940599A4086143090C0C4695
:100450004443650BE7040C4666467443A646640BAA
:100460003C43039502947446049DE4042C1B0494BD
:1004700006D2029C039D641C0026754103950294DC
:1004800001AC70CC009F7D1BB44101940C465C43D1
:100490000095650FE7000C465443A646640F3C43A5
:1004A000039502947446049DE4002C1B049406D228
:1004B000029C039D641C002675410395029401ACC7
:1004C00070CC009F7D1BB441AE09AF06049DC900EE
:1004D000AD092F43049DA406AD060495079D344342
:1004E00069180791059DE10B4D432D0C2946664681
:1004F000754302950D4645432E46029D7D1BB44132
:1005000000950D465D4301942C0C2F040D46554378
:10051000AE462D0C3D43029503947546049C2D0474
:10052000641B049406D2029C039D641C0026754142
:100530000395029401AC70CC009F7D1BB4410194E3
:100540008C050694079C890A611800950791019C07
:100550000599A4086143090C0D464543680BEF0457
:100560000D46644665436C0B3C43049FED047D1BC4
:10057000AC4602D20025641C6841009E019D371BD9
:1005800085410846584301950C46460FC500544323
:10059000600F28436546E4002C1B02D20025401C56
:1005A0006E41019D3F1AB5412846BD09800628438A
:1005B0008446A009BF064E020699A4067618074392
:1005C000079D002068410A99079019430020099B64
:1005D00000906046FF1913434041E20F64003A4324
:1005E000A4460446D71A8C41A04203D901200090AA
:1005F00020463A46C70F941840416246D20F224324
:10060000644664000494009CBE466400D71AA44665
:10061000044602978C417746002F01D1A04204D9AD
:100620006046401C8446029A2046C40FA646941891
:100630004041049A0546D20F224364466400D31A0F
:100640008D417146002901D1A84202D928461A4697
:10065000641C10430122002800D0164361020020D0
:10066000079B891904465C410223002C02DB4918D0
:1006700013466441089DCE0A2D145D194B0567058C
:10068000E10A2C050D1908993E43C9076940002B62
:1006900008D0934006D30022761C5141002B01D193
:1006A000760876001C4A002D43DB154241D0AA4350
:1006B0003FD030460BB0F0BD06180D464D41174CEB
:1006C0007642AC411AD395181C465C41134A6D42E0
:1006D000A24113D3012252054C00D4420AD15C003E
:1006E000D4420BD04B4002D592021143E2E74900BD
:1006F0004908DFE75940C90FC90718E00020084939
:10070000D8E7054801420DD10342F7D0F2E70000D7
:100710000000FF07481500000000F07F0000E0FF28
:100720000000F87F114859400143C01241400020A9
:10073000C0E70123089A9B069A4205DC0322520770
:100740008918C90FC907B5E7052252078918074A52
:100750001143D2125140ADE770B515461C46024612
:100760000B4628462146FFF7DFFD70BDFFFFFF7FE8
:100770001F22030C02D10F22000402D0030E03D06B
:1007800004E00020014670470002083A030F01D13F
:100790000001121F830F01D18000921E002801DB8F
:1007A0004000521E120551184205C0124118104651
:1007B0007047C10FC90700D0404201229207114380
:1007C000D6E701218907D3E7F0B58B4C0F09254601
:1007D00089B0BD437BD01D092646AE43FAD00E46F4
:1007E0005E402740F60F3E43254071D02401214250
:1007F000FBD0FF24AD19A4042D1B039501252D0565
:10080000DB02DB0AC9022B43C90A29431E01090185
:10081000040F130F050121431701880B8203914335
:100820002D098C46A90B1E438A039543B30B9A03EB
:1008300096433F09BA0B9403A74302962E467E4384
:100840000497B6464E19D7190C460196544305979E
:100850007E43371B7646BF1B3601B646BE0B3619A4
:1008600000967646BC043719009C01D3641C0094A2
:100870006400002F01D001263443029E049F75437B
:1008800066467E430496760034196E00341900944F
:10089000029C019E1C196643751BAE460694654674
:1008A0004519059C05956C43594375460891691A8D
:1008B0000191049E01465143A41B0491611A009CBE
:1008C0000791E10605D061090122114302E072E0BF
:1008D0006EE06109089D00272C0A2D066918049D09
:1008E0007C412A0A2D066918019D6241AC0DAD02BA
:1008F0006D185441079A910D920255196141029A5F
:10090000644658435443069B059A5A43121A131BD4
:100910009A0E9B015B187A41010B0005C3185141E7
:10092000220A200644195A419A4200D2491C012049
:100930004002814203D315230226F64302E014232A
:100940000326F6432020C51AA9401746AF40DA40D7
:100950000A4320460399D840091473181905511801
:10096000039A3843D2075140AC4009D00122944049
:1009700006D30022401C5141002C01D14008400008
:100980001E4A934212D3012203989206904207DB3B
:100990000520400709181A480143C012414004E0ED
:1009A000032040070818C10FC907002009B0F0BD97
:1009B0000020F107FAE705180C464C4111486D423A
:1009C000A04115D394181A465A410E4864429041EA
:1009D0000ED301204A004005824209D35A008242C8
:1009E00006D35940C90F084AC90700201143DDE763
:1009F00000200649DAE700000000FF07FE070000BC
:100A0000FFFFFF7F0000E0FF0000F07F0000F87FA5
:100A100070B505464800440D124B0020002C0AD04A
:100A2000634008D09A4206DA6642B24203DD1205FC
:100A30004019514170BD002C08D0002B09D0C90FBE
:100A4000C907002AF6DB084A114370BDC90FC90760
:100A500070BD28460A03104302D00020034970BD30
:100A6000284670BDFF0700000000F07F0000F87FFF
:100A70000121C9050123411842001B06D3185B0E52
:100A80000AD0C1100722D206891840075242D1422B
:100A900001D5520089187047090208D50146002A7D
:100AA00003D0C10FC90700207047104670474202AB
:100AB00002D0002002497047072109050143F4E7ED
:100AC0000000F87F754600F025F8AE46050069463F
:100AD0005346C008C000854618B020B5FFF772FB2A
:100AE00060BC00274908B6460026C0C5C0C5C0C5C1
:100AF000C0C5C0C5C0C5C0C5C0C5403D49008D46C4
:100B0000704710B50446C046C0462046FFF723FB99
:100B100010BD0000004870478006002001491820E1
:100B2000ABBEFEE7260002007047000070B5254806
:100B3000C16800291AD00021C160234C2079002807
:100B40003DD0012812D1214B18680125204E0028E4
:100B50000DD0A0680146401CC217120F12181209CE
:100B60001201801AE268904203D1B56070BDB56091
:100B700070BD2720414317480D181748806822216F
:100B80004855D86829462331FFF784FB6878C007A9
:100B90000BD0284600F076FA002803D0012000F0A0
:100BA000E7FC70BD002000F0E3FCA068401CC1170A
:100BB000090F091809090901401AA06070BD00F069
:100BC000B7FC70BD00110040380000200014004048
:100BD000001000401F0100204015004010B500F03B
:100BE00085FA002805D0084906484860C813074917
:100BF000886100F063FA002802D00549012088606E
:100C000010BD0000DFFF07C000050040006C004081
:100C10000006004003480168491C016002490020A9
:100C2000086070477000002040A1004030B50E4AB7
:100C30009168481C0D4C0023A360802800DB002035
:100C4000D5680B4CA84205D1A06950705068401C73
:100C5000506030BDA469481C064D90606C548028DB
:100C6000F7DB936030BD00007400002000210040DD
:100C700000250040FF05002030B47446641E25782E
:100C8000641CAB4200D21D46635D5B00E31830BCC0
:100C9000184770B50446204600F0B4FC0506200A4B
:100CA00000F0B0FC00040543200C00F0ABFC000297
:100CB0000543200E00F0A6FC284370BD10B50023AC
:100CC000014600220C78491CE318DBB2521C142A9E
:100CD000F8D3007C181AC0B210BD0000F8B5052288
:100CE00000250121090708694969491E484310493F
:100CF00000F02CF90E4E012730780E4C0B280DD049
:100D000025702078002808D10A491422091D0848B6
:100D1000FFF728FA00F0CEFD2770F8BD0448FFF772
:100D2000CDFF317C814201D12770EAE72570E8E7E9
:100D3000E40000201C000020074908694969401CA4
:100D4000C217120F121812091201801A884201D01C
:100D500001207047002070473800002000B50022B5
:100D600000F094F8002805D003482721C0684843C4
:100D700002494218104600BD380000201F01002023
:100D800000B50023FFF7D8FF002805D0034827212E
:100D90000069484302494318184600BD3800002046
:100DA0008F030020F8B52A480126C6632948022788
:100DB0000760294D294CA878E0606878002804D0A5
:100DC000012804D0022806D104E0276103E00020B6
:100DD000206100E026612878A060A86A00F012FC7B
:100DE0001F49C0B2401860621E48A062A98DA86A5F
:100DF0000906000A0843FFF74CFFE0611A48206229
:100E00000020E0622663194860611948A0616763A9
:100E10001848E0631848A06318490820486018483B
:100E20000660016810221143016001680422114329
:100E300001600168314301602E71A8682721484391
:100E400010494018606010484660EE70F8BD000020
:100E5000C01F004000E100E0380000200015004005
:100E600000C2C3C4C8C7C6C5C2C2C20006000300D0
:100E700020000401FFFF00002110010000130040CA
:100E8000001200401F01002000100040044881684B
:100E9000C068814201D001207047002070470000E7
:100EA000380000200549C868401CC217120F1218EC
:100EB00012091201801AC860704700003800002033
:100EC00010B50848C07800280BD072B6012006493A
:100ED000086106490020C8630548006862B6FFF74C
:100EE00061FF10BD3800002000100040C01F00400E
:100EF00000E200E005490869401CC217120F1218F1
:100F000012091201801A08617047000038000020A1
:100F100010B5034AD1629062FFF7D2FF10BD000006
:100F20003800002010B504490A787E2A00D20870E3
:100F3000FFF7C6FF10BD00003800002010B50249C1
:100F40004870FFF7BDFF10BD3800002030B500230A
:100F500004E0046810309D004C515B1C9342F8D3B0
:100F600030BD000070B5114D02236B60104C23683A
:100F7000002BFCD0A8602368002BFCD001236B6001
:100F80002368002BFCD0002304E09E008E590660ED
:100F900010305B1C9342F8D320680028FCD000205E
:100FA000686020680028FCD070BD000000E50140AA
:100FB00000E40140064A0123136006480021016055
:100FC00001680029FCD0536003488068C0B27047B4
:100FD00000D0004000D1004000D50040014800781A
:100FE000704700001400002000B58BB08178FF2905
:100FF0001DD001291ED0022917D1C11C0C2208A81E
:10100000FFF7F6F808A8007800F089FA08A84078F9
:1010100000F089FA09990A9800F07DFA08A91748A2
:101020000EC9001D0EC000F045FC0BB000BD00F065
:101030001BFCFAE71248016A0291406A0190002005
:1010400069464870FFF7B6FF4006400E022801D2FD
:10105000022002E07D2800D97D20694608704020EA
:1010600008730D2048730220887303A80C220330F4
:10107000FFF7BEF803A800F031FAD6E7E40000203D
:1010800040000010F8B5002641780B4D49078C0F41
:101090000746A96923378C4206D13846FFF7E9F89D
:1010A000E969884200D10126AC613846FFF7E1F8D2
:1010B000E8613046F8BD0000380000200A48018C85
:1010C000C9B201290BD1818C090708D1018D09060C
:1010D000090F042903D1808D0006000F01D00020E4
:1010E0007047012070470000C00F00F01349088CC2
:1010F000C0B201281DD1888C00071AD1088D0006C6
:10110000020F03D18A8D1206120F03D0000F01289F
:1011100002D005E0012070478A8D1206120F02D01E
:10112000032802D005E001207047888D0006000FDB
:1011300001D000207047012070470000C00F00F070
:101140000D4800210160012182051160016800291C
:10115000FCD00A4903200860094D0424AC6000F06B
:1011600069FAEC6000F0E2F800F0A4FAFFF7B6FDCF
:1011700000F084F900F006F8000100400807005074
:10118000000500508AB0554C0425554EA0E0554846
:101190000078402834D0992836D02078002802D012
:1011A000504800F061FB4F48403000F0F3FA00284F
:1011B00008D04C4840300078402803D0494840309F
:1011C00000F08CF900F030FA4749884265D9207860
:1011D000002862D000F028FAA1686431884245D323
:1011E00000F022FAA060052069460871487100F0FD
:1011F000BBF8074600F028F9002827D0022026E097
:101200003848FFF7F1FECEE72078002810D0002202
:101210002270344899212030017001214170827080
:1012200000F05CF900F01AF900F0FEF96060BAE72E
:101230000127277000F01AF92A48992120300170FF
:1012400047702178817000F049F9ACE700203843FD
:101250006946887100F064F8099001A8042209A980
:101260000330FEF7C5FF01A800F0FEFA00F0DCF93C
:10127000E1683231884210D300F0D6F9E0604020B6
:10128000694608720220487201208872FFF7A6FEA4
:101290006946C87202A800F021F900F0C5F961683A
:1012A0007D27401A3F01B84210D9207800280DD17F
:1012B000F56000F0B9F9606000F0B6F96168C9192D
:1012C0008842F9D3B56000F0AFF9606000F070F8C3
:1012D000044800F0E7F8002895D058E70000002007
:1012E0000005005084000020DC05000000B5014628
:1012F00000F09AF9411800F097F98842FBD300BD3D
:10130000012181400148C160704700000005005084
:1013100001218140014881607047000000050050B4
:1013200001484068704700006800002010B50D4873
:10133000032404601520FFF7EBFF6420FFF7D6FFBE
:101340000848183004601B20FFF7DAFF6420FFF71D
:10135000CDFF1B20FFF7DCFF6420FFF7C7FF00F085
:101360000FF810BD54070050044800698007C00FF3
:10137000002801D000207047012070470005005070
:1013800010B50A48032404601F20FFF7C1FF074877
:10139000183804601920FFF7BBFF04487038046058
:1013A0000320FFF7ADFF00F041F810BD7C070050AF
:1013B00070B500F039F9154C2168401A052824D978
:1013C00013480068002820D11248806885B200F0D8
:1013D0002BF920602846FFF7F4F900220E4BFEF7A8
:1013E000A3FFFEF763FFFFF743FB0C4A0C4BFFF72D
:1013F000EBF90122FFF70CFB0A4A0B4BFFF7E4F96C
:10140000FEF754FF606000F011F870BD6800002026
:10141000007400400075004000F88F4033333333D0
:101420003333F33F6666666666660A4004490348DE
:101430004860012008600349086070470A200000E6
:101440000075004000700040034800690006C00FAE
:10145000002800D0012070470005005010B515206D
:10146000FFF74EFF0220FFF753FF10BD10B5152008
:10147000FFF74EFF0220FFF743FF10BD70B5084E87
:10148000B568F468FFF78EFC7079FFF757FD307987
:10149000FFF748FD20462946FFF73AFD70BD0000E2
:1014A000E400002010B50446FFF7F0FC002810D03F
:1014B000FFF754FC00280CD02221074A095C117068
:1014C0000278811C2046FEF793FEFFF7EBFC01201B
:1014D00010BD002010BD00001400002070B50546AE
:1014E000FFF72AFC002814D068781E2811D8FFF7CF
:1014F00047FC0446002C0CD06A782946921CA01C9C
:10150000FEF776FE6878801C2070FFF7F3FC012060
:1015100070BD002070BD10B5FFF7FAFC10BD10B50E
:10152000FFF700FD10BD10B5FFF708FD10BD00006E
:101530000A4A2721906848430949401809494860E8
:10154000094801680423994301600168082319438D
:1015500001600120107105490861704738000020C2
:101560001F01002000150040001200400010004044
:10157000F0B51F4A1D4B04250127146A002801D02D
:101580005C6025E01A481B4E0169B4420AD05069DC
:10159000814207D0401CC417240F241824092401B9
:1015A000001B50615069884206D0272148431249E8
:1015B0004018586010620BE035704020B070022077
:1015C000F070377109484030806870715E60166253
:1015D0000A480168082399430160016829430160B2
:1015E0000020107106480761F0BD000000150040A2
:1015F00038000020F80000208F0300200012004077
:101600000010004030B501460020CAB20021072476
:101610001346CB40DB07DB0F651AAB401843491C70
:101620000829F5D330BD000001480068704700006C
:101630007000002010B50E4B0120D8600D4A042127
:1016400011617D210B4AC900403211600A490860CE
:101650000A4A010451600A4A1168FF242404A14384
:10166000C40521431160074A81021160186010BD52
:1016700000A0004000A5004000A2004000A30040E0
:1016800008E400E000E100E00020084B19780029A0
:101690000BD09A68D9688A4207D04A1C0448DA609D
:1016A000405C802A01DB0021D96070477400002073
:1016B000FF05002030B51D48016A0C2291430162EC
:1016C000016A04221143016218484030C16B0723AC
:1016D0001B029943C1634106154881618160154928
:1016E0001F23CB608305C3611E234B6113068361F7
:1016F00083601A2088600F4B01204033D8620307B3
:101700004B620A600C4988600C4C2368FF252D044D
:10171000AB430325AD052B432360094B1A60094BEE
:101720005A6008600849087030BD0000000700508A
:1017300000050050002500400020004000E400E0CB
:1017400000E100E00023004074000020064801781A
:10175000002905D08168C068814203D0012070470C
:101760000020704700207047740000200649097867
:10177000002907D00549C8610548C1690029FCD086
:101780000021C16170470000740000200025004066
:1017900000210040F8B5044600266670314D2878D7
:1017A000062801D12E706E7005274DE0FFF76CFF03
:1017B00029780B00FFF760FA06040C161D2E3E4830
:1017C000AA2803D000212970A8703DE00121FAE782
:1017D000AA2805D000212970A9780818A87033E03C
:1017E0000221F8E7207003212970A9780818A87051
:1017F0002AE0E870A9780918A9706E70411E1D29A9
:1018000002D8042028701FE01E2801D92E701BE08A
:101810002F7019E069781E2904D262189070AA7896
:101820001018A870491CC8B26870E97888420BD3B8
:101830002F7009E0A978814204D1E8786070062011
:10184000287001E02E706E70FFF780FF002802D034
:1018500028780628AAD12878062801D00020F8BDCB
:101860000120F8BD15000020F8B50546AA20FFF7B5
:101870007DFFAF20FFF77AFF2878FFF777FF2C78FE
:1018800059346878FFF772FF68780019C7B20024EE
:1018900007E02E19B078FFF769FFB078C019C7B21A
:1018A000641C6878A042F4DC3846FFF75FFF012033
:1018B000F8BD000010B505240748FFF7FFF90649F9
:1018C000087401210907086949692246491E4843ED
:1018D0000149FFF747FB10BDE400002080807F7EB8
:1018E0007D7C7B7A79787776767574737271717096
:1018F0006F6E6E6D6C6C6B6A6A6968686766666548
:101900006464636362616160605F5F5E5E5D5D5CD5
:101910005C5B5B5A5A595958585757565655555546
:101920005454535352525251515050504F4F4F4EA6
:101930004E4D4D4D4C4C4C4B4B4B4A4A4A494949F4
:101940004848484747474746464645454544444436
:101950004443434343424242424141417C190000D7
:10196000000000208400000004010000001A0000B4
:10197000840000205C120000200100000100000033
:101980000000000000000000000000000024F4003F
:101990000000000000000000000000000B0000003C
:1019A00002000000120000009A7856340000000087
:1019B0000000000002000401000000000000000020
:1019C0000000000000000000000000000000000017
:1019D0000000000000000000000000009A7856346B
:1019E00012000000000000000000000000000000E5
:1019F00000000000000000000000000000000000E7
:04000005000000C136
:00000001FF
