:020000040001F9
:10600000C83D0020A1610100BB610100BD6101002C
:106010000000000000000000000000000000000080
:10602000000000000000000000000000BF6101004F
:106030000000000000000000C1610100C361010018
:10604000C5610100516F0100BD700100C561010013
:10605000C561010000000000C5610100C5610100CB
:10606000C561010035700100A1700100C56101002A
:10607000C5610100C5610100C5610100C561010084
:10608000C5610100596F0100C5610100C5610100D2
:10609000816F0100C5610100896F0100C5610100C8
:1060A000C5610100C56101000000000000000000A2
:1060B00000000000000000000000000000000000E0
:1060C00000F002F800F030F80CA030C808382418AE
:1060D0002D18A246671EAB4654465D46AC4201D120
:1060E00000F022F87E460F3E0FCCB6460126334222
:1060F00000D0FB1AA246AB46334318470C6B000096
:106100002C6B00000023002400250026103A01D348
:1061100078C1FBD8520700D330C100D50B6070475F
:106120001FB51FBD10B510BD00F0AAFD1146FFF749
:10613000F7FF03F031FF00F0C2FD03B4FFF7F2FFF9
:1061400003BC00F0C5FD0000401E00BF00BF00BF43
:1061500000BF00BF00BF00BF00BF00BF00BF00BF47
:1061600000BFF1D17047000070B505460C461646D9
:1061700002E00FCC0FC5103E102EFAD2082E02D32B
:1061800003CC03C5083E042E07D301CC01C5361F3E
:1061900003E021782970641C6D1C761EF9D270BD55
:1061A00003210C4802680A4302600B4802680A4354
:1061B00002600A4880470A480047FEE7FEE7FEE71C
:1061C000FEE7FEE7FEE7000006480749074A084BDE
:1061D000704700002405004054050040FD6F010099
:1061E000C1600100C8310020C83D0020C835002032
:1061F000C83500200048704768310020034610B5BC
:106200000B439B070FD1042A0DD308C810C9121FD6
:10621000A342F8D018BA21BA884201D9012010BD92
:106220000020C04310BD002A03D0D30703D0521C66
:1062300007E0002010BD03780C78401C491C1B1B94
:1062400007D103780C78401C491C1B1B01D1921EFE
:10625000F1D1184610BD000030B5441C03E00178B0
:10626000401C00290DD08107F9D10B4BDD0104C87A
:10627000D11A91432940FAD0001B0A0603D0C01E50
:1062800030BD001B30BD0A0401D0801E30BD0902A4
:10629000FCD0401E30BD000001010101F8B5042A08
:1062A0002CD3830712D00B78491C0370401C521E5C
:1062B00083070BD00B78491C0370401C521E8307C8
:1062C00004D00B78491C0370401C521E8B079B0F97
:1062D00005D0C91ADF002023DE1B08C90AE0FFF73A
:1062E00043FFF8BD1D4608C9FD401C46B4402C4381
:1062F00010C0121F042AF5D2F308C91A521EF0D496
:106300000B78491C0370401C521EEAD40B78491CC0
:106310000370401C012AE4D409780170F8BD01E043
:1063200004C0091F0429FBD28B0701D50280801C01
:10633000C90700D00270704700290BD0C30702D0F4
:106340000270401C491E022904D3830702D5028033
:10635000801C891EE3E70022EEE70022DFE700222F
:1063600003098B422CD3030A8B4211D300239C4692
:106370004EE003460B433CD4002243088B4231D30A
:1063800003098B421CD3030A8B4201D394463FE09E
:10639000C3098B4201D3CB01C01A524183098B42FE
:1063A00001D38B01C01A524143098B4201D34B01E7
:1063B000C01A524103098B4201D30B01C01A52414A
:1063C000C3088B4201D3CB00C01A524183088B42D1
:1063D00001D38B00C01A524143088B4201D34B00BA
:1063E000C01A5241411A00D201465241104670472C
:1063F0005DE0CA0F00D04942031000D34042534031
:1064000000229C4603098B422DD3030A8B4212D3F0
:10641000FC22890112BA030A8B420CD38901921122
:106420008B4208D3890192118B4204D389013AD05F
:10643000921100E08909C3098B4201D3CB01C01A34
:10644000524183098B4201D38B01C01A5241430947
:106450008B4201D34B01C01A524103098B4201D335
:106460000B01C01A5241C3088B4201D3CB00C01AA2
:10647000524183088B4201D38B00C01A5241D9D2BA
:1064800043088B4201D34B00C01A5241411A00D23B
:106490000146634652415B10104601D34042002B37
:1064A00000D54942704763465B1000D3404201B5B6
:1064B0000020C046C04602BD7047704770470000CC
:1064C0000246C80FC00781434B0030B54B405B000C
:1064D0009B0D20D01923DB06C91801231B05994207
:1064E00020DB0324A40704251346AB400BD3002B69
:1064F00004D1EB0613409B00E34204D4012464075B
:10650000002312195941FF231B0599420BD2C900E0
:106510000143500F09E0CB0204D5014308030243B5
:1065200005D0054830BDFF21C905084330BD0846E8
:1065300007210905884330BD0000C07FF0B5F94D43
:106540000C091E092C402E402F468BB0A7437DD04E
:10655000B543FCD0002E7AD0002CFCD00D465D4017
:10656000ED0F2543AC1BFF25AD0464190894C5024B
:10657000440DC9022143500DDC0204430120C00731
:1065800001430443D2020191200C110C00958C466A
:10659000010423468B430A9161460904E24D8A4374
:1065A0000991010A7D4449198039097805464D430E
:1065B00001266D18F605751B6943C90C640B891C0F
:1065C0004C436418B5012C1B250C2E04B4434C43DA
:1065D0004D43210C691889090591009DE90701D0F7
:1065E0000121C90704912C4601996708CD072F4363
:1065F0004C08059DE10B4D432D0C2946664675431D
:1066000002950D4645432E46029D7D1BB4410095E3
:106610000D465D4301942C0C2F040D465543AE46A8
:106620002D0C3D43029503947546049C2D04641B78
:10663000049406D2029C039D641C002675410395B8
:10664000029401AC70CC009F7D1B01E03EE162E151
:10665000B44109040095079101940599A408614388
:10666000090C0C464443650BE7040C46664674432C
:10667000A646640B3C43039502947446049DE404CF
:106680002C1B049406D2029C039D641C00267541B9
:106690000395029401AC70CC009F7D1BB441019422
:1066A0000C465C430095650FE7000C465443A64634
:1066B000640F3C43039502947446049DE4002C1B34
:1066C000049406D2029C039D641C00267541039528
:1066D000029401AC70CC009F7D1BB441AE09AF06A3
:1066E000049DC900AD092F43049DA406AD06049581
:1066F000079D344369180791059DE10B4D432D0C0F
:1067000029466646754302950D4645432E46029D31
:106710007D1BB44100950D465D4301942C0C2F0464
:106720000D465543AE462D0C3D43029503947546E8
:10673000049C2D04641B049406D2029C039D641CDB
:10674000002675410395029401AC70CC009F7D1B1F
:10675000B44101948C050694079C890A6118009540
:106760000791019C0599A4086143090C0D46454316
:10677000680BEF040D46644665436C0B3C43049F75
:10678000ED047D1BAC4602D20025641C6841009ECE
:10679000019D371B85410846584301950C46460F1D
:1067A000C5005443600F28436546E4002C1B02D209
:1067B0000025401C6E41019D3F1AB5412846BD0988
:1067C000800628438446A009BF064E020699A40607
:1067D00076180743079D002068410A9907901943DE
:1067E0000020099B00906046FF1913434041E20FCF
:1067F00064003A43A4460446D71A8C41A04203D908
:106800000120009020463A46C70F94184041624646
:10681000D20F2243644664000494009CBE46640088
:10682000D71AA446044602978C417746002F01D11F
:10683000A04204D96046401C8446029A2046C40FF8
:10684000A64694184041049A0546D20F2243644656
:106850006400D31A8D417146002901D1A84202D9A2
:1068600028461A46641C10430122002800D0164313
:1068700061020020079B891904465C410223002C19
:1068800002DB491813466441089DCE0A2D145D1998
:106890004B056705E10A2C050D1908993E43C90708
:1068A0006940002B08D0934006D30022761C51414A
:1068B000002B01D1760876001C4A002D43DB1542DF
:1068C00041D0AA433FD030460BB0F0BD06180D466C
:1068D0004D41174C7642AC411AD395181C465C4189
:1068E000134A6D42A24113D3012252054C00D442F7
:1068F0000AD15C00D4420BD04B4002D59202114326
:10690000E2E749004908DFE75940C90FC90718E025
:1069100000200849D8E7054801420DD10342F7D0CD
:10692000F2E700000000FF07946500000000F07F20
:106930000000E0FF0000F87F114859400143C012F9
:1069400041400020C0E70123089A9B069A4205DCDB
:10695000032252078918C90FC907B5E70522520754
:106960008918074A1143D2125140ADE770B5154658
:106970001C4602460B4628462146FFF7DFFD70BD48
:10698000FFFFFF7F1F22030C02D10F22000402D061
:10699000030E03D004E00020014670470002083ACD
:1069A000030F01D10001121F830F01D18000921E3D
:1069B000002801DB4000521E120551184205C0128A
:1069C000411810467047C10FC90700D0404201224C
:1069D00092071143D6E701218907D3E7F0B58B4C25
:1069E0000F09254689B0BD437BD01D092646AE431D
:1069F000FAD00E465E402740F60F3E43254071D048
:106A000024012142FBD0FF24AD19A4042D1B0395C2
:106A100001252D05DB02DB0AC9022B43C90A2943E4
:106A20001E010901040F130F050121431701880BF3
:106A3000820391432D098C46A90B1E438A0395437B
:106A4000B30B9A0396433F09BA0B9403A7430296EC
:106A50002E467E430497B6464E19D7190C4601962A
:106A6000544305977E43371B7646BF1B3601B64617
:106A7000BE0B361900967646BC043719009C01D32C
:106A8000641C00946400002F01D001263443029E50
:106A9000049F754366467E430496760034196E0063
:106AA00034190094029C019E1C196643751BAE4666
:106AB000069465464519059C05956C4359437546F2
:106AC0000891691A0191049E01465143A41B049147
:106AD000611A009C0791E10605D06109012211436A
:106AE00002E072E06EE06109089D00272C0A2D0685
:106AF0006918049D7C412A0A2D066918019D62418E
:106B0000AC0DAD026D185441079A910D92025519C2
:106B10006141029A644658435443069B059A5A437E
:106B2000121A131B9A0E9B015B187A41010B000588
:106B3000C3185141220A200644195A419A4200D2F0
:106B4000491C01204002814203D315230226F6434B
:106B500002E014230326F6432020C51AA940174655
:106B6000AF40DA400A4320460399D840091473180D
:106B700019055118039A3843D2075140AC4009D047
:106B80000122944006D30022401C5141002C01D127
:106B9000400840001E4A934212D3012203989206F5
:106BA000904207DB0520400709181A480143C0122C
:106BB000414004E0032040070818C10FC907002026
:106BC00009B0F0BD0020F107FAE705180C464C416A
:106BD00011486D42A04115D394181A465A410E48E7
:106BE000644290410ED301204A004005824209D3FD
:106BF0005A00824206D35940C90F084AC9070020EB
:106C00001143DDE700200649DAE700000000FF0736
:106C1000FE070000FFFFFF7F0000E0FF0000F07FA5
:106C20000000F87F0121C9050123411842001B061D
:106C3000D3185B0E0AD0C1100722D206891840076C
:106C40005242D14201D5520089187047090208D535
:106C50000146002A03D0C10FC90700207047104623
:106C60007047420202D000200249704707210905FF
:106C70000143F4E70000F87F0048704768310020C6
:106C80007546FFF7F9FFAE46050069465346C00852
:106C9000C000854618B020B5FFF796FA60BC002703
:106CA0004908B6460026C0C5C0C5C0C5C0C5C0C5D8
:106CB000C0C5C0C5C0C5403D49008D46704710B530
:106CC0000446C046C0462046FFF737FA10BD70475D
:106CD00001491820ABBEFEE72600020070B58C18F3
:106CE0000578401C6B075B0F01D10378401C2A110B
:106CF00006D10278401C03E00678401C0E70491C47
:106D00005B1EF9D12B0705D40023521E0DD40B7046
:106D1000491CFAE70378401CCB1A921C03E01D784B
:106D20000D70491C5B1C521EF9D5A142D8D300201E
:106D300070BD0000C206D20E01219140014A1160CF
:106D40007047000080E200E0C206D20E01219140AF
:106D5000014A11607047000000E100E0C206D20E57
:106D600001219140014A11607047000000E200E0FB
:106D700010B5002819DA1A4A03071B0F083B9B08B5
:106D80009B00D2588307DC0EFF23A3409A438B0756
:106D90001B0E8407E40EA3401A43114B0407240F73
:106DA000083CA408A4001A5118E00E4A03231B0251
:106DB000D21883089B00D2588307DC0EFF23A34020
:106DC0009A438B071B0E8407E40EA3401A43054B1E
:106DD000032424021B198408A4001A5110BD0000CA
:106DE0001CED00E000E100E010B5002819DA1A4AB5
:106DF00003071B0F083B9B089B00D2588307DC0E40
:106E0000FF23A3409A438B071B0E8407E40EA34085
:106E10001A43114B0407240F083CA408A4001A517C
:106E200018E00E4A03231B02D21883089B00D25895
:106E30008307DC0EFF23A3409A438B071B0E8407B6
:106E4000E40EA3401A43054B032424021B198408B3
:106E5000A4001A5110BD00001CED00E000E100E0AC
:106E600010B5002819DA1A4A03071B0F083B9B08C4
:106E70009B00D2588307DC0EFF23A3409A438B0765
:106E80001B0E8407E40EA3401A43114B0407240F82
:106E9000083CA408A4001A5118E00E4A03231B0260
:106EA000D21883089B00D2588307DC0EFF23A3402F
:106EB0009A438B071B0E8407E40EA3401A43054B2D
:106EC000032424021B198408A4001A5110BD0000D9
:106ED0001CED00E000E100E010B5002819DA1A4AC4
:106EE00003071B0F083B9B089B00D2588307DC0E4F
:106EF000FF23A3409A438B071B0E8407E40EA34095
:106F00001A43114B0407240F083CA408A4001A518B
:106F100018E00E4A03231B02D21883089B00D258A4
:106F20008307DC0EFF23A3409A438B071B0E8407C5
:106F3000E40EA3401A43054B032424021B198408C2
:106F4000A4001A5110BD00001CED00E000E100E0BB
:106F500010B502F021FB10BD10B5002007490860F4
:106F60000021064841608160C1600020034940392A
:106F70000860486005F0B2FA10BD00004011014001
:106F800010B505F06BF910BD70B50C48006800280D
:106F900011D00A4800688047044600BF2546002DEE
:106FA00007D000BF06A2FF213331284600F0DAF9EE
:106FB00000BF00BF01E002F0F9FD70BD1823002002
:106FC0002E2E5C6E726635315F73646B5C6E72661A
:106FD00035313832325C536F757263655C73645F50
:106FE000636F6D6D6F6E5C736F66746465766963F5
:106FF000655F68616E646C65722E630010B502F0A7
:107000009BFE002805D0074807494860C813074978
:10701000886102F075FE002802D0012004498860D2
:1070200010BD0000DFFF07C000050040006C0040FD
:107030000006004016480068002806D0FF200130F6
:107040001449C860002012490860114840680028AF
:1070500006D0FF2001300F49886000210C484160B4
:107060000B488068002808D00A480069C005C00F96
:10707000094908600021064881600548C068002869
:1070800005D000200549087000210148C160704703
:10709000409100400005005038210020342100209C
:1070A00004480068401C0349086000200249086049
:1070B000704700002021002040A1004010B5154974
:1070C0000968481C0021144A9160802800DB0020D8
:1070D00012490968884209D111498969114A117018
:1070E00011490968491C104A116010BD0C49896991
:1070F000CAB208490B680968491C064C21600B4953
:10710000CA5421460968802902DB00212246116009
:1071100000BFEAE7E820002000210040EC2000202A
:1071200000250040F4200020F0200020A4270020AB
:1071300030B47446641E2578641CAB4204D3635D8E
:107140005B00E31830BC18471D46F8E7F8B5044665
:107150000F4616460025002030702078002809D000
:1071600032463946204603F013FA0546002D01D079
:107170002846F8BDA078002808D03146384600F0EF
:107180004FFA0546002D01D02846F2E7A0880028D6
:107190000ADD33463A460121201D05F073FB054602
:1071A000002D01D02846E4E7E06800280BD000203D
:1071B000E16808563246394605F052FA0546002D78
:1071C00001D02846D5E7208A00280CDD3B46062260
:1071D000022120461030009605F0FFFB0546002DE9
:1071E00001D02846C5E7208B00280CDD3B4607224E
:1071F000032120461830009605F0EFFB0546002DD0
:1072000001D02846B5E7208C00280CDD3B4615222E
:10721000142120462030009605F0DFFB0546002DA6
:1072200001D02846A5E7A06A002809D03246394691
:10723000A06A01F06BF90546002D01D0284698E7B9
:10724000E06A002809D032463946E06A03F0ECF8DB
:107250000546002D01D028468BE73420005D00282C
:1072600009DD32463946204604F06AFB0546002D0A
:1072700001D028467DE728467BE70146888800281C
:1072800008D08868002805D088680078042210405B
:10729000002801D1072070470020FCE710B590B00E
:1072A00006210191194800680090382102A8FFF7D3
:1072B00054F802216846017201218172818101A97D
:1072C00004910121018369460791002102A800F081
:1072D0007BFA044600BF2346002B06D000BF0CA259
:1072E000FF210D31184600F03DF800BF14210D4874
:1072F000FFF733F800200B49087048600872C82077
:1073000008820020488210B010BD0000E0CA0100D1
:107310002E2E5C7372635C626C655C626C652E63BE
:10732000000000003424002010B5084873DF044634
:1073300000BF2346002B06D000BF05A2FF218A31E3
:10734000184600F00FF800BF10BD000034240020E4
:107350002E2E5C7372635C626C655C626C652E637E
:107360000000000000BFBFF34F8F04480449C8600D
:10737000BFF34F8F00BF00BFFEE700000400FA0517
:1073800000ED00E0F8B504460D46164603480768D0
:10739000324629462046B847F8BD00005C3100203F
:1073A000F8B5044617480078142148431549091DCB
:1073B0000E5C081F0078142148431249091D40182B
:1073C0008068000110490D580E4800781421484388
:1073D0000C49091D40184088091F009009781422A3
:1073E0005143084A121D89180B69111F097814228C
:1073F0005143044A121D8918084608302246314676
:10740000A847F8BD842F00205030002070B50346F7
:107410000C4619480068002801D1082070BD002AD8
:1074200001D10720FAE7002B01D10720F6E7002160
:107430001CE024204843104D2D68285C002814D1FE
:107440000125242048430C4E3668355424204843F7
:10745000094D2D684019447024204843064D2D687D
:107460004019826119600020D8E7491C0348007860
:107470008142DEDB0420D1E7302300202C230020D2
:10748000FFB581B00E4617461C4620468107890F7E
:10749000002901D1012100E00021002902D10720AB
:1074A00005B0F0BD002C01D10720F9E704F0F8F990
:1074B00026490A9808602648067026480460002578
:1074C0000CE0002124206843224A12681154242031
:1074D0006843204A1268801801756D1CB542F0DBC4
:1074E00024207043041903201B4908701B480460C2
:1074F000183400250CE0E900184A126888180021A9
:107500000170417087704460182179430C196D1C1B
:10751000032DF0DB0020C043114908600020114911
:107520000870114908701420FFF704FC032114208F
:10753000FFF7D2FC1420FFF707FC019804F086F94E
:1075400004F07EF9094908600020A9E750230020D3
:107550002C23002030230020342300203823002057
:107560003C2300204C2300204D23002040230020FA
:10757000FEB504460D46164616480068002801D19F
:107580000820FEBD14480078844201D2052D01D2A6
:107590000720F6E7242060430E490968085C0128AB
:1075A00001D00820EDE7242060430A49096840180B
:1075B0004078012801D1284600E00020074605F068
:1075C000E3F93B462A4621460096019004F03CFF31
:1075D000D7E70000302300202C23002070B504469C
:1075E0000D480068002801D1082070BD0B480078C4
:1075F000844201D30720F8E7242060430649096844
:10760000085C012801D00820EFE705F0BDF9054628
:10761000214604F043FFE8E7302300202C2300201C
:10762000F8B505460C462078001D1F2801DD0C200A
:10763000F8BD684679DF0646002E01D03046F7E7F0
:1076400003212278501C2070A95419212278501C43
:107650002070A954207841196846008805F000F987
:107660002178401820700020E2E7000003460C4615
:10767000224619460148FFF775FE0000EFBEADDE59
:1076800000487047482700200148007870470000F4
:10769000BC2000200021014A11707047BC2000204E
:1076A00010B586B0044620780190414800884149D1
:1076B000884201D106B010BD68468088142801DDDB
:1076C0001420019000200290039004900590012165
:1076D000684681723848018868460181A01C05907F
:1076E00001A8049002A932480088A6DF2078132858
:1076F00001DD142001E02078401C01902F48006833
:10770000400160210840802108432178491EC906B4
:10771000C90E08432A49087068468288A11C284877
:10772000401CFEF7BBFD00200290039004900590E2
:1077300001216846817223480188684601812048FA
:10774000059001A8049002A919480088A6DF2078B6
:10775000132826DD2078123881B20191174800687D
:107760004001602108401649087068468288214619
:1077700015311348401CFEF791FD00200290039044
:10778000049005900121684681720E480188684680
:1077900001810B48059001A8049002A904480088C3
:1077A000A6DF06480068401C0449086000BF81E766
:1077B00034200020FFFF00001C200020C8200020F3
:1077C000902700202C200020F3B593B00D46002117
:1077D000129111911398002814D01398FFF74DFDC2
:1077E0000446002C02D0204615B0F0BD12AA09A90B
:1077F0001398FFF7ABFC0446002C01D02046F3E7BA
:1078000009AE00E00026002D13D0284604F05EFAF1
:107810000446002C01D02046E6E711AA01A928461B
:10782000FFF794FC0446002C01D02046DCE701AFB2
:1078300000E0002710A803793A46017A304672DF4B
:10784000D2E7000010B574DF044600BF2346002BCA
:1078500006D000BF03A2FF2192311846FFF782FD38
:1078600000BF10BD2E2E5C7372635C626C655C623F
:107870006C652E630000000070B505461C22294689
:107880001448FEF771FC002013490870286800288E
:107890000BD0082211482968FEF700FD0F487ADF57
:1078A0000446002C08D0204670BD0C487BDF0446FF
:1078B000002C01D02046F7E70020C043084908808B
:1078C000002008490870084A00210848FFF79EFD7B
:1078D000EAE70000682F0020CC220020B42200201C
:1078E000BE220020BC220020EDC80100C8220020DA
:1078F00010B504462088102806D0112808D0122878
:107900000ED0502810D107E0204602F0F9FE0CE01E
:10791000204602F013FF08E0204602F031FF04E0A9
:10792000204602F0E1FE00E000BF00BF10BD0000F5
:1079300030B585B00446FF21019154496846018263
:10794000847402AA04A90120A0DF0546002D02D0FC
:10795000284605B030BD0020009000BF6846007882
:1079600001090901491C684601700078F02188432B
:1079700010306946087000BF00BF684640780109B2
:107980000901491C684641704078F0218843103055
:107990006946487000BF6846807806218843811C8C
:1079A000684681703A49486184733849491C81812D
:1079B00003A83849086001A8086101200881364BF6
:1079C0000A46334968460089A2DF0546002D01D0EA
:1079D0002846BEE7002000902D4948616846847320
:1079E0002A49891C818103A82C49086001A80861E3
:1079F000012008812A4B0A462A4968460089A2DFED
:107A00000546002D01D02846A3E70020009000BFC6
:107A10006846007801090901491C68460170007830
:107A2000F021884310306946087000BF00BF6846E7
:107A3000407801090901491C684641704078F021ED
:107A4000884310306946487000BF68468078062138
:107A50008843811C68468170134948618473812181
:107A60008900818103A80D49086001A808610120EF
:107A700008810E4B0A460C4968460089A2DF05467C
:107A8000002D01D0284664E7002062E701020000D3
:107A900038200020902000201C200020A82000205A
:107AA0002420002054200020702000202C200020C2
:107AB00070B505462888102804D0112806D0502813
:107AC00076D108E0A8883C49088072E00020C043D5
:107AD000394908806DE0AC1D208838490988884202
:107AE00010D13748007800280CD1228B21461A315A
:107AF0003448FEF7D3FB207E3249891E08700120EE
:107B00002F49087020883049098888424ED10026C4
:107B1000A07E8021084080281ED1A07E60210840E0
:107B20002A490870A07EC006C00E401C2849086083
:107B300008460068132806DD132221461B3125481C
:107B4000FEF7ACFB1DE0224821461B3102682148AC
:107B5000FEF7A4FB012614E0A07E602108401B492B
:107B6000097888420DD1FF2018490870184800682C
:107B70000246133A21461B3116481330FEF78EFB9E
:107B80000126002E11D00E48007800280DD1104893
:107B9000104902680B48FEF781FB0D48007809493F
:107BA000891E087001200649087000BF01E0FFE748
:107BB00000BF00BF70BD0000342000201C2000204A
:107BC000BC2000204A27002024200020C4200020C0
:107BD000C0200020702700207FB5044600BF01218F
:107BE000684681735D49818100BF5D4A03A9012018
:107BF000A0DF0546002D02D0284604B070BD2088C5
:107C000000280DDD57480090228823463C33564813
:107C1000616800F027FA0546002D01D02846ECE700
:107C2000208900280EDD51480090228923463C33EC
:107C30004D48401FE16800F015FA0546002D01D0BF
:107C40002846DAE7208A00280EDD49480090228A7B
:107C500023463C334448001F616900F003FA05469F
:107C6000002D01D02846C8E7208B00280EDD4148B2
:107C70000090228B23463C333B48801EE16900F094
:107C8000F1F90546002D01D02846B6E7208C0028E2
:107C90000EDD39480090228C23463C333248C01E0A
:107CA000616A00F0DFF90546002D01D02846A4E7FF
:107CB000208D00280EDD31480090228D23463C3374
:107CC0002948401EE16A00F0CDF90546002D01D09B
:107CD000284692E7206B002813D001A8216B04F0FE
:107CE000F5F8274823463C33082201A900901E4896
:107CF000801F00F0B7F90546002D01D028467CE72B
:107D000000BF606B00280FD01E480090606B0279A6
:107D100023463C3301681448401C00F0A3F9054693
:107D2000002D01D0284668E7A06B002813D001A8D9
:107D3000A16B03F08FF9144823463C33072201A9B5
:107D400000900948273000F08DF90546002D01D03C
:107D5000284652E700BF00204FE700000A18000045
:107D6000CE220020D0220020292A0000D822002084
:107D7000E0220020E8220020F0220020F82200204B
:107D800000230020082300201023002010B5044603
:107D9000204600F041FE2046FFF7AAFD2046FFF7EF
:107DA00087FE204602F088FC10BD000038B500BFF9
:107DB0000020144B062204210090FFF761FB0446CB
:107DC00000BF2346002B06D000BF0FA2FF21DE31EB
:107DD0001846FFF7C7FA00BF00BF00F029F800F00F
:107DE000B1FD01F029FDFFF759FA03F0EFFD00F0B6
:107DF000CDFB03F081FDFFF797FA04F027FC00208C
:107E000038BD0000982400202E2E5C7372635C62E3
:107E10006C655C626C652E630000000070B5044602
:107E20000D462846FEF718FA2080656070BD0000F8
:107E30003EB500BF002350221D49184603F006FF3F
:107E4000054600BF2B46002B06D000BF19A2FF211C
:107E50006B311846FFF786FA00BF00BF0120009083
:107E6000684660DF01A871DF01A9002070DF1648B5
:107E700003F0E0FE044600BF2346002B06D000BFFF
:107E80000CA2FF2177311846FFF76CFA00BF0F48AC
:107E900003F010FF044600BF2346002B06D000BFAE
:107EA00004A2FF217B311846FFF75CFA00BF3EBDFC
:107EB000482400202E2E5C7372635C626C655C62E9
:107EC0006C652E63000000008D7D0100B9BE0100CD
:107ED0007CB50446A1786A460D4803F023F90546AF
:107EE000002D13D16178182251430A4A88181C23A7
:107EF0001822694603F002FA0748807A8000074991
:107F00000A58214668469047054600BF7CBD0000E0
:107F100064230020243100205C31002018CB0100B4
:107F2000024908780021014A11707047242100207D
:107F300030B51121032293000524240707252D02C3
:107F400064198D00635100BF052109070722120241
:107F50008918496C032212041143052212070723D2
:107F60001B02D21851640149087030BD2421002041
:107F700010B504F003F91C490968884232D004F0B6
:107F8000FDF8194908601948007800280DD11848F3
:107F900000698003C00F002807D101201349087031
:107FA00004F0ECF8134908601CE010480078012840
:107FB00018D10F4800698003C00F002812D000209C
:107FC0000A49087004F0DAF80A490968401A7D2164
:107FD000C900884203D201200749087002E002204C
:107FE0000549087010BD0000282100203021002024
:107FF000000500502C2100202421002070B50446EB
:10800000200E03F06FFE0506200C03F06BFE00044B
:108010000543200A03F066FE00020543204603F0F4
:1080200061FE284370BD000010B504460B4800688F
:10803000012812DA82206043094A811801220020B7
:1080400002F0A8FD8220604305494018024608322C
:1080500070230021084601F04BF910BDB02200202A
:10806000E42E0020F0B58FB007460D4614461E469C
:1080700000BF002D01D0012000E0002000900098FA
:10808000002805D100BF31A26D21FFF76BF900BFB9
:1080900000BF00BF002C01DD012000E000200090A7
:1080A0000098002805D100BF28A26E21FFF75AF9D9
:1080B00000BF00BF1C2107A8FEF74FF96946087FE3
:1080C00002218843801C69460877002008900A90A6
:1080D0000B900C900D9000BF012108A88176684696
:1080E000078700BF002001903178684601717178E0
:1080F0004171807906218843811C684681718079AD
:10810000082188430146684681718079102188439F
:10811000014668468171807941084900684681714D
:10812000142102A8FEF719F90EA8029001A80390E5
:1081300068460482002141828482069502AA07A92A
:1081400010480088149BA2DF0FB0F0BD2E2E5C6E8D
:10815000726635315F73646B5C6E726635313832CE
:10816000325C536F757263655C626C655C626C65F2
:108170005F73657276696365735C626C655F646981
:10818000732E6300CE220020F0B585B00F2758482B
:108190000078142148435649091D4418E5682078A1
:1081A000022804D0042823D005286FD16FE020696D
:1081B00003905048008886026088801B04900398D2
:1081C00080190390A088801945190121890204981B
:1081D000884206D2049882082846039921DF074680
:1081E00005E0FF2201322846039921DF074676E0A9
:1081F000A06800014049401800890490A06800016F
:10820000401840890390A06800014018406802901F
:108210000298A84205D1039904984843618888428E
:1082200002D0A06802280DD101200007006981B2A8
:108230002846FEF794F82F4909884618304620DF73
:10824000074622E001200007006981B22846FEF7B8
:1082500086F8064601200007006980B27043281A9C
:108260008008019001200007006980B2711C48431A
:1082700061884919401A8008009031462046009BC9
:10828000019A03F041FD074600BF28E026E00120E7
:108290000007006981B22846FEF761F80646A0880B
:1082A000411901200007006980B27043081A800854
:1082B0000490A088401961884218012000070069D5
:1082C00080B2711C4843801A8008039031462046D2
:1082D000039B049A03F018FD074600E000BF00BFAF
:1082E000002F02D1012002498870384605B0F0BD48
:1082F000842F0020602300205030002010B500247F
:1083000006484078002807DDFFF73EFF0446002CB2
:1083100002D0112C00D10024204610BD842F002053
:108320000023142141430C4A53541421414389181A
:108330004B8001231421414389188B6000231421B1
:1083400041438918CB601421414389180B611421E2
:10835000414389188B807047882F0020FFB581B07A
:10836000064617460024204840780A2837D01E4881
:1083700000781D4949784018C4B20A2C02DB204617
:108380000A38C4B2142060431749091D0E54142042
:10839000604340180761142060434118029805C8E3
:1083A000CA608860142060430F4A121D8018049927
:1083B00041801420604380180A9981800025101F95
:1083C0008078002805D1FFF7DFFE0546112D00D18A
:1083D000002505484078401C0349487000E004250A
:1083E000284605B0F0BD0000842F002010B5002005
:1083F0000849088008490870084908704870887062
:10840000002403E02046FFF78BFF641C0A2CF9D3FD
:1084100010BD00006023002063230020842F002073
:10842000FEB51E480068401C002834D01B48006878
:10843000242148431A4909684018456803F000FAA6
:108440000190184804682146019803F0C7FEC61C35
:1084500015480078002801D103F004FAAE4201D299
:10846000284600E0304604192402240A20460F4919
:10847000086000BF03F0E4F900900199009803F050
:10848000ADFEC71C2046019903F0A8FE874201D922
:1084900004F072F801E003F003FAFEBD3C23002073
:1084A00030230020402300205423002040150140A9
:1084B00001460888062808DB08881922D201904264
:1084C00005DD0888104A904201D00720704748888F
:1084D000062808DB48881922D201904205DD488829
:1084E000094A904201D00720F0E70888064A9042E6
:1084F00008D04888904205D008884A88904201DD1B
:108500000720E3E70020E1E7FFFF0000F8B506469B
:108510000D4614462078801D1F2801D90C20F8BD77
:108520003046FFF7C5FF0746002F01D03846F6E773
:1085300005212278501C2070A95412212278501C49
:108540002070A95422785119308804F089F92178D3
:108550004018207022785119708804F081F9217830
:10856000401820700020DAE7034600BF02A29021E5
:108570001846FEF7F7FE00002E2E5C7372635C62F5
:108580006C655C626C652E630000000010B588B0FD
:108590001C2101A8FDF7E1FE002001900520C00389
:1085A0000290039003216846017400214182012159
:1085B0000175002006900A48079001A8FFF75CF9B2
:1085C000044600BF2346002B06D000BF05A2FF21B2
:1085D0005D311846FEF7C6FE00BF08B010BD0000B2
:1085E000698501002E2E5C7372635C626C655C624F
:1085F0006C652E630000000038B51F4801F06EFB6B
:10860000002829D11D48007800280AD01C4840695C
:10861000002820D00020009019484169684688470A
:1086200019E018480078002802D11548456801E093
:10863000134885680022294613480068FEF798FF12
:108640000446002C07D00E488069002803D00C484F
:108650008169204688470AE009484069002806D019
:1086600001200090064841696846884700BF002005
:108670000249087038BD0000C0220020CC22002032
:10868000682F0020BC220020C822002070B50346BD
:108690000C460820002115E00C254D430B4EAD196A
:1086A000AD7A2540002D0CD0094DAB4205D00C25EC
:1086B0004D43AD192D899D4202D11160002003E088
:1086C0000520491C0029E7D000BF70BD50310020B3
:1086D000FFFF000010B5044601210C2060430A4A48
:1086E00080188172891E0C20604380180181FF214F
:1086F0000C2060438018C1720C2161438818072147
:10870000FDF729FE10BD00005031002010B51448BF
:108710004068C105C90D002920D00A46103A50B260
:1087200000280DDA0E4B1C330407240F083CA40864
:10873000A4001B598407E40EE3401B069B0F0BE0CB
:10874000084B032424021B198408A4001B59840726
:10875000E40EE3401B069B0FD8B210BD0420FCE7DB
:1087600000ED00E000E100E0FEB504460E46A17811
:108770006A46284802F0D6FC0546002D49D16078AB
:108780000C21484324494018807A202108402028A1
:1087900001D0022E01D1214F04E0012E01D1204F42
:1087A00000E0204FA0781C2250431F4A811800236C
:1087B0001C226846B8470546002D1AD1022E18D053
:1087C00060780C21484314494018807A202188435E
:1087D00061780C225143104A8918887260781822F7
:1087E0005043124A81181C2318226846B847054690
:1087F00000BF022E0DD020780C2148430C494018B0
:10880000807A80000B490A58214668469047054601
:1088100000BFFEBD64230020503100206DB7010071
:1088200041B50100DDBC0100603000202431002092
:108830005C31002008CB0100F8B505460E461B4F01
:1088400000242EE01C20604319494018807EFF2838
:1088500026D13078022814D01C2060434018807E36
:10886000022188431C216143114A891888761C2102
:10887000614389180846103007223146FDF70EFD86
:108880000BE01C2060430A494018807E41084900E3
:108890001C206043064A801881762C70002702E075
:1088A000641C072CCED300BF3846F8BD43800000BF
:1088B00060300020F8B505460E46174605200090AA
:1088C00000241BE0002D06D11C2060430E494018F7
:1088D000008BB8420DD0002D0FD01C2161430A4AF5
:1088E00089180846103007222946FDF787FC002822
:1088F00003D134600020009002E0641C072CE1D317
:1089000000BF0098F8BD00006030002070B505463B
:108910000E46134600BF1C46002C05D000BF04A223
:10892000AA212046FEF71EFD00BF002070BD0000FA
:108930002E2E5C7372635C626C655C626C652E6388
:10894000000000001FB502F08DFC044600BF234666
:10895000002B05D000BF29A2B8211846FEF702FD62
:1089600000BF0020039003A800F0FEFA044600BFF9
:108970002346002B05D000BF20A2BE211846FEF7DB
:10898000F1FC00BF062101A80230FDF7E4FC1E2126
:108990006846C180007A40084000401C6946087261
:1089A0006846007A02218843694608726846007A60
:1089B0001C2188430C30694608726846007A2021E1
:1089C0008843694608720721684641721021817206
:1089D0000F48009001216846017169460D4800F07A
:1089E00039FC044600BF2346002B05D000BF03A27C
:1089F000CD211846FEF7B6FC00BF1FBD2E2E5C73BE
:108A000072635C626C655C626C652E6300000000E2
:108A10000D8901001A200020F0B589B00446002617
:108A2000FF20029000BFFE480078002801D109B065
:108A3000F0BD00BF00BFFB480068002800D1F6E78A
:108A400000BF06A800F082FA054600BF2F46002F9F
:108A500006D000BFF44AF5493846FEF783FC00BF54
:108A600000BF0020019007900025201D04903421B4
:108A700068468182FF2181760021017600200890DE
:108A80002088102813D0A08808AA0221FFF7FEFD35
:108A90000546002D0BD10C2108984843E4494018A5
:108AA000C17A684681760898C1B2684641762088C6
:108AB000142879D006DC10280BD0112879D013287F
:108AC00074D1F5E0172872D0182871D05228F7D148
:108AD0000BE208AF3A460121D648FFF7D7FD0090D8
:108AE0000098002807D102210C2238685043D04A50
:108AF0008018817201E00420009000980546002D46
:108B000051D101261121684601730898C1B2684607
:108B10004176A1880C2208985043C54A80180181EB
:108B200002210C2208985043C14A801881720C22FD
:108B300008995143BE4A88180722A11DFDF7AEFBD4
:108B4000607B304000280AD0607B4008BA49085C4E
:108B5000FF280AD0607B4008085C029005E0B54A17
:108B600002A9A01DFFF7A6FE0546002D1BD1029805
:108B7000C1B20C2208985043AD4A8018C1720C2132
:108B80000898484311464018807A082108430C226F
:108B900008995143A64A89188872694602988876CE
:108BA00006A8FFF795F9AAE141E002E0A6E1C1E0DD
:108BB0007AE10C21089848439D494018807A0221A7
:108BC00088430C2208995143994A891888720C21CC
:108BD0000898484311464018807A08210840082820
:108BE0000ED10C210898484311464018807A402144
:108BF000084040280FD1002106A8FFF7B5FD0AE084
:108C00006846807EFF2806D06946887E02F068F8B4
:108C1000FF206946887610210C2208985043844A28
:108C200080188172012612206946087367E10C21C1
:108C3000089848437E494018C07AFF2823D1E2892A
:108C400002A90020FFF736FE0546002D1BD1029831
:108C5000C1B20C2208985043754A8018C1720C2189
:108C60000898484311464018807A082108430C228E
:108C7000089951436E4A8918887269460298887625
:108C800006A8FFF725F90C210898484368494018C1
:108C9000C07AFF2806D01821089848436749401831
:108CA000001D0190A0880022019981DF054626E180
:108CB000132069460873A0885A4A121D00217FDFDD
:108CC0000546002D02D00795002632E00C210898B9
:108CD000484357494018807A042108430C220899D8
:108CE0005143534A8918887201260C210898484339
:108CF00011464018C07AFF281BD000BF16206946D5
:108D000008731421089848434D49401800214160D8
:108D10008160C16001610C210898484311464018E8
:108D2000807A202108430C2208995143404A89182F
:108D30008872E4E00C21089848433D494018807A45
:108D4000042188430C2208995143394A89188872B2
:108D50001420694608730126A079002802D0A07962
:108D60000790A0E018210898484334494118E07A58
:108D7000887018210898484330494118A07A4870F3
:108D80001822089951432D4A8918081D142221469A
:108D90000C31FDF783FA0C21089848432449401808
:108DA000807A4021084040287DD10C210898484312
:108DB0001F494018807A082108430C220899514322
:108DC0001B4A891888720C2108984843114640189C
:108DD000C07AFF2855D10C22089850430A468118C2
:108DE00002A8FFF729FD0546002D48D169460298E3
:108DF00088760298C1B20C22089850430C4A801819
:108E0000C172A1891C22029850430E4A8018018326
:108E1000E07A4007C00F00282CD01C22089913E0EC
:108E2000702300205C310020BCCB0100370900001A
:108E300050310020FFFF000071230020243100206A
:108E40003C3100206030002051433B4A88181022FA
:108E500021462031FDF722FA1C2108984843364963
:108E60004018807E410849001C2208985043324A2D
:108E700080188176012106A8FFF776FC13E007959C
:108E800011E00C21089848432C494018807A202191
:108E900008430C2208995143284A891888720021F6
:108EA00006A8FFF761FC2AE00C21089848432349F3
:108EB0004018807A402108430C22089951431F4AE8
:108EC00089188872152069460873002007900126CA
:108ED0001B48807A80001B4A115806A8884705461F
:108EE000002D01D01848079009E01548807A8000CD
:108EF000144A115806A88847079000E000BF00BF39
:108F0000002E16D003A906A8079AFEF73BFA68467A
:108F1000007B12280DD100BF0C2108984843074957
:108F20004018807A012802D00898FFF7D3FB00BFD1
:108F300000BF00BF7BE50000603000205031002002
:108F40005C31002028CB010041800000014600294F
:108F500001D104487047FF20087048708870C870BD
:108F60000020F7E70E8000007FB50646002E02D1F4
:108F7000354804B070BD00240BE000BF00210C2078
:108F80006043324A11500C2060438018817200BF48
:108F9000641C002CF1D0002403E02046FFF79AFB6C
:108FA000641C002CF9D014212948FDF7D6F90024BF
:108FB00006E0204601F094FEFF2026490855641C77
:108FC000072CF6D34C21684681810721C1812248B4
:108FD0000290224902A802F007FA0546002D30D17E
:108FE00001201F4908703078002821D100241CE09E
:108FF000A1B26A46194802F095F80546002D0FD136
:109000001C216143174A881800231C22694602F07C
:1090100075F90546002D07D000201149087006E0BB
:1090200000200F49087002E0641C072CE0D308E020
:109030006A469089D289504381B2084802F0BAF852
:109040000546284695E700000E8000005C310020B0
:109050003C3100207123002069900100642300202E
:109060007023002060300020FFB58BB00F461D46F6
:1090700000BF6F480068002801D10FB0F0BD00BFED
:1090800014984C2800D9F8E70120029007A8FFF7B0
:109090005DFF064600BF0196019E002E06D000BF70
:1090A000644A65490198FEF75DF900BF00BF0021E1
:1090B0006846017708A8017006951498059000206D
:1090C000019017E0019881B203AA5C4802F02AF8E7
:1090D0000646002E0BD1082203A90B98FDF78EF847
:1090E000002804D10198C1B26846817705E0019853
:1090F000401C019001980728E4D300BF6846807F98
:10910000FF287BD0042F0AD114984C2803D12020AB
:1091100008A9087066E0402008A9087062E0484984
:10912000681A1C21FDF71BF90446072C1DD205A85F
:1091300009900D98002810D16946887F012181404F
:10914000404A12681140002901D0012100E00021AD
:10915000002902D10020029044E06946887F03F094
:10916000BBFB202008A908703CE03749681A182189
:10917000FDF7F5F80446002C0DD105A80990202133
:1091800008A8017068464477807F1C2148432C4919
:109190004018069026E02D49681A1421FDF7DFF8E3
:1091A0000446002C19D1302108A801706846447784
:1091B0000121C1770C20604325494018807A0221A3
:1091C000084002280ED06946497F142251431F4AA5
:1091D00088181421FDF7C1F804E000200290402017
:1091E00008A90870029801281FD1042F07D108A9E7
:1091F00008780321084308A908700FE015E0032F41
:1092000006D108A908780121084308A9087005E0DB
:1092100008A908780221084308A9087005A8099040
:1092200008A907A80D9AFEF7ADF800BF25E70000D2
:109230005C310020BCCB0100C3040000642300208B
:10924000603000206C230020243100203C310020BD
:109250005031002070B505460C4600BF1748007815
:10926000002801D1164870BD00BF002D02D114485E
:10927000801DF8E7002C02D11148801DF3E720681B
:10928000002802D10E48801DEDE70E480068002836
:109290000FD10C49206808600622A11D0948001D55
:1092A000FCF7FCFF2079074988720020287000260F
:1092B00001E0034E361F3046D5E700007023002042
:1092C000088000005C31002010B50246D0B2064B89
:1092D000185C4840054B185CD3B2034CE054D0B244
:1092E0002346185C10BD0000842900205C2100206A
:1092F000FFB581B00D4616461F46019801F06EFA83
:10930000002800D117E0F021019801F0DBFC29468C
:10931000019801F0D7FC2912019801F0D3FC002438
:1093200004E0019801F004FC3055641CBC42F8DBF9
:10933000012005B0F0BD0020FBE700000146144805
:109340000078144A127890421DD011480078401CD1
:109350000F4A107010460078022801D100201070CA
:109360000B48007880000C4A105808600B4A0868C7
:1093700012688018094A1060104600680002000A4E
:109380001060012070470020086000BFFAE700006D
:109390004C2300204D2300204423002040230020A4
:1093A00008480068411CC817000F40180011000150
:1093B000081A054A1268904201D001207047002027
:1093C000FCE700008C2200209022002008200649A3
:1093D00088600020054908600120054908610020D7
:1093E0000449C863704700000013004000120040A9
:1093F00000100040C01F004000B5002200F060F9DE
:10940000002805D003480068282148430249421833
:10941000104600BD882200209429002000B50023BA
:10942000FFF7BEFF002805D0034800682821484305
:1094300002494318184600BD8C220020142C00203D
:1094400010B501203E49C86300BF012181403D4A5B
:10945000116000BF3C4800683C49C8603C48006857
:10946000002804D0012806D002280CD107E00220F1
:109470003649086107E000203449086103E0012013
:109480003249086100BF00BF324800682F49886038
:1094900031480078002807D003202C49403108606B
:1094A00001202E49486010BD2D494868FEF7A6FDF1
:1094B000C0B22C490843254948622B488862284895
:1094C0000068FEF79BFD2149C8612848086200201A
:1094D000C862012008632648486126488861022046
:1094E00048632548C86325488863082024494860A4
:1094F00001202449086008460068102108432149DA
:10950000086008460068042108431E4908600846B0
:109510000068012108431B49086001201A490870AE
:109520001A480068282148431949401807494860EB
:1095300001200A4948601749087000BFB3E70000DE
:10954000C01F004000E100E06C2200200015004038
:1095500068220020642200207022002000100040B9
:109560007822002000C2C3C4C8C7C6C5C2C2C20098
:109570000600030020000401FFFF0000211001008D
:1095800000130040001200408022002084220020AE
:10959000942900206022002010B53E48C0680028B1
:1095A00075D000203B49C8603B48007800286AD04D
:1095B00001286BD139480068002803D101203849BF
:1095C000886010BD37480068282148433649441850
:1095D00036488068C1B2222001553048C0686062B8
:1095E00030490968481CC117090F091809110901F8
:1095F000411A2F4A1268914203D1012028498860FC
:10960000DFE7204600F04EFB002803D0012002F0E7
:109610006DFAD6E727480078002807D0A0780821FF
:10962000084025490968C900884210D01D490968C9
:10963000481CC117090F091809110901411A194AD3
:1096400011601D4800680121081A1B49086019486B
:109650000078002807D0A07804210840174909683D
:109660008900884209D0154800680121081A134969
:109670000860002002F03AFA02E0012002F036FA17
:1096800004E004E0FFE702F00BFA00BF00BF00BFF8
:1096900097E70000001100408022002000140040E5
:1096A0000010004084220020942900204015004032
:1096B000882200209C220020982200209422002052
:1096C0000448006804490968884201D001207047B5
:1096D0000020FCE784220020882200200549096838
:1096E000481CC117090F091809110901411A014A3B
:1096F00011607047882200200B480078002800D1B4
:10970000704701200949086100200949C863012008
:1097100008490968012282401140002900D000E078
:1097200000BF62B600BFEBE76022002000100040DF
:10973000C01F004000E200E005490968481CC1174D
:10974000090F091809110901411A014A11607047EE
:109750008C22002010B503460C46024818C0FFF7C3
:10976000CBFF10BD7822002000B5034604480068F6
:109770007E2801DA02480360FFF7BEFF00BD00004B
:109780006422002010B5044605480470002C02D065
:10979000FEF758F801E0FDF7C7FDFFF7ADFF10BD7C
:1097A0007022002000B5034602480360FFF7A4FFC3
:1097B00000BD00006822002000B503460248036097
:1097C000FFF79AFF00BD00006C220020F0B50346B1
:1097D000002426E0164E366824277E43154F3F6846
:1097E000F01946689E4203D94668F61A46601DE0A5
:1097F00046689B1B466834190026466006750C4E69
:1098000035680B4F066A3E600669002E08D00E19B7
:109810003602360A86600669C660166806621560FA
:1098200000BF03480068401C0028D3D100BFF0BD32
:109830003C230020302300203EB500BF684600785E
:1098400001090901491C009168460078F02188430C
:109850001030009000BF09221CA168467CDF04463E
:1098600000BF2346002B05D000BF1BA2DE211846F7
:10987000FDF778FD00BF002078DF044600BF2346D7
:10988000002B05D000BF14A2E1211846FDF76AFDA8
:1098900000BF0020019002901021684681802021A5
:1098A000C18000210181FF219131418101A87ADF2E
:1098B000044600BF2346002B05D000BF06A2EB21C3
:1098C0001846FDF74FFD00BF3EBD00004372617AB0
:1098D00079666C69650000002E2E5C7372635C62B1
:1098E0006C655C626C652E63000000000146002020
:1098F0007047024600207047024600207047000073
:10990000F8B5044600260027607814214843194919
:10991000085800281FD060780C2148431649401889
:10992000807A40210840402815D160780C214843B6
:1099300011494018807A2021084020280BD06078F7
:10994000142148430B494018061D607814214843F0
:109950000849085A87B261780C225143064A89188F
:1099600008893A463146A9DF0546002D00D0034D4F
:109970002846F8BD3C3100205031002041800000D5
:1099800070B505460C466178142251430C4A88187C
:1099900034231422294601F0B1FC0646002E0DD1D5
:1099A00060781421484306490858401C002805D116
:1099B0000021607814225043014A1150304670BD96
:1099C0003C310020F0B585B007460C4610200090D1
:1099D00061780C225143294A891808896A4601A9ED
:1099E000AADF0646002E46D1617814225143244A4C
:1099F0008918081D69460A8801A9FCF7FFFB0028A1
:109A000012D160780C2148431C494018807A022109
:109A1000084002282FD0617814225143184A881830
:109A20001421FCF79AFC26E060781421484314497D
:109A30000858002801D0134D00E0134D69460988ED
:109A40006078142250430E4A115061781422514319
:109A50000B4A8918081D69460A8801A9FCF784FB8E
:109A6000607814225043064A811834231422384661
:109A7000A847064600BF002005B0F0BD50310020C9
:109A80003C3100206DB7010041B5010070B50546BD
:109A90002846FFF735FF0446002C02D100BF00BF67
:109AA0000446204670BD70B505460E463146284630
:109AB000FFF766FF0446002C02D100BF00BF04463A
:109AC000204670BD70B505460E4631462846FFF764
:109AD00079FF0446002C02D100BF00BF0446204697
:109AE00070BD000070B504462079F02827D0FF280B
:109AF00039D101201D490870FF201D498870FE21C1
:109B00001B48C170FF2101711A490622401DFCF754
:109B1000C5FB0920164908700846FDF7C1FDFFF78F
:109B20003FFC00280AD0FFF779FC0546282210499F
:109B30002846FCF719FBFFF7FFFD00BF14E00B48B8
:109B4000007800280ED0207804280BD1642000F083
:109B500013FD6079002802D140203CDF01E0202085
:109B60003CDF2DDF00E000BF00BF70BD0D200020F6
:109B70000C240020A400001010B504462079012810
:109B800004D0022806D003280CD107E06079FFF743
:109B9000EBFD08E06079FFF705FE04E06079FFF770
:109BA0000BFE00E000BF00BF10BD0000F8B5294863
:109BB0000078002800D1F8BD27480068002801D1AE
:109BC000012000E00020054624480068002801D15B
:109BD000012000E00020064600BF002D14D1684699
:109BE00051DF0446052C01D101250CE0002C06D0E4
:109BF00000BF1BA269212046FDF7B4FB03E0164914
:109C000000980968884700BF002E1AD123480088B1
:109C1000009069462248006861DF0446052C01D1A6
:109C200001260DE0002C06D000BF0DA280212046A9
:109C3000FDF798FB04E01A4800680849096888475E
:109C400000BF002D02D0002E00D000E0C5E700BF0D
:109C500000BFB0E722230020282300202423002077
:109C60002E2E5C6E726635315F73646B5C6E72664D
:109C700035313832325C536F757263655C73645F83
:109C8000636F6D6D6F6E5C736F6674646576696328
:109C9000655F68616E646C65722E6300202300202E
:109CA0001C230020014600204A785207920F094BDE
:109CB0001B689A4205D1084B4A6A1B689A4200D138
:109CC00001204A785207920F024B1A60024B4A6AEF
:109CD0001A607047A0220020A42200200146488874
:109CE000064A1288904206DB4888044A528890420D
:109CF00001DC012070470020FCE70000B4220020B6
:109D00000C48008CC0B2012812D10A48808C000790
:109D1000000F00280CD10748806AF0210840402835
:109D200006D10448C06A0840002801D101207047CC
:109D30000020FCE7C00F00F01948008CC0B20128D9
:109D40002CD11748808C0007000F002826D114481A
:109D5000806AF0210840002806D11148C06A0840F6
:109D6000002801D1012070470D48806AF021084089
:109D7000102806D10A48C06A0840002801D10120F5
:109D8000F1E70748806AF0210840302806D10448EE
:109D9000C06A0840002801D10120E4E70020E2E782
:109DA000C00F00F001468807800F002801D1012074
:109DB00070470020FCE70000FEB52B4800680190CA
:109DC0002A480078009040E00098C00028490968BF
:109DD0004418257835E01820684361680F18681C1E
:109DE000C5B2A078A84200D100253878022802D058
:109DF000032823D10EE02421786848431D490968CF
:109E00004618307D002804D0786802F0C3FA00209C
:109E1000307514E00CE01449096824225143154AB6
:109E200012688818002101750F4A016A116000BF8D
:109E30000D480068401C0028EDD100E000BF00BFC5
:109E400000BF6078A842C6D100BF0098411EC9B2C9
:109E500000910028B8D1044801680198814201D0DE
:109E60000120FEBD0020FCE73C230020342300201D
:109E70003823002030230020FEB507464048006804
:109E800002904048007801906BE00198C0003E4984
:109E9000096845185DE0781C002807D03E4624205C
:109EA00070433A4909684418276A23E0297818233F
:109EB00059436A6850182978491C29702978AA786A
:109EC000914201D1002129704668242171432F4A13
:109ED00012688C180178012902D1217D002900D057
:109EE00037E08168A160C168E16001692161416971
:109EF000E16100BF2649A0680968401A0002000A13
:109F00002449884208D22249A068096802F066F90B
:109F1000E1684018606011E01D48A168006802F027
:109F20005DF90090E1680098814204D9E1680098E9
:109F3000081A606001E00020606000BF0020A0609F
:109F4000E06001202075801E2062304602F0B4F9E6
:109F500000BF781C00289ED12878697888429AD161
:109F600000BF0198411EC9B2019100288DD104485B
:109F700001680298814201D00120FEBD0020FCE76B
:109F80003C230020342300203823002030230020ED
:109F900040230020FFFF7F0002F0F6F800F07AFA7D
:109FA00002202A49886101208107886000BF284873
:109FB00040680028FBD0FDF7F9FE052000070721C7
:109FC00009024018C06923490843052109070722EF
:109FD00012028918C8611D48C06980210840002804
:109FE00009D01A48C06906210840002803D1012081
:109FF000FDF79EFF02E00020FDF79AFF1348C069BD
:10A0000020210840002804D0012013490870202096
:10A010003DDF00F0A1FE0D48C069C007C00F002859
:10A0200002D1042000F0C6FF80200C49886008059A
:10A03000072109024018C06C064908430521090799
:10A04000072212028918C86400F00AF800050040CF
:10A050000001004001020000002000200005005027
:10A060000EB50025CEE1002D14D1FDF70DFB002823
:10A0700010D0FDF705FB07463A78B91CE248FCF71B
:10A080000DF93878E049891E087001253846FDF73A
:10A0900001FB00BF002D17D1FFF712FB002813D0E2
:10A0A000FFF7AAF907462220C05DD84908703A7820
:10A0B000B91CD548FCF7F2F83878D349891E0870E6
:10A0C0000125FFF70BFB00BF002D2BD0CE4FBF1E8D
:10A0D00000253878042809DBB878FF2806D1F878FD
:10A0E000032803D13846FFF747FD1AE038780228E5
:10A0F00009DDB878FF2806D1F878FE2803D1384664
:10A10000FFF7F0FC0DE03A78B91CC148FCF7C6F83F
:10A110003878BF49891E487000200870084601F051
:10A12000FBFF00BFBB4801F03DFF029002980028F2
:10A130006FD0B848007811286CD006DC0300FCF71B
:10A14000F7FF060D3E536ABC88BC20287ED021282C
:10A150007DD022287CD0232830D1A5E0FFF720F93C
:10A16000002819D0AB484078202815DAFFF756F9B7
:10A170000746002F0AD0A7484278811CB81CFCF77C
:10A180008DF8A44840783870FFF7D6FA2021A1480E
:10A19000801CFCF7E0F800BF9E48407820280DDACC
:10A1A0009C484278811C9C48FCF778F89948407894
:10A1B0009949891E08700846FDF772FA7DE09548B6
:10A1C000407801280FD193498878FFF7CDFA012014
:10A1D0008F49891E08708F488078887001204870E8
:10A1E000084601F099FF68E08A48407801280FD1BD
:10A1F00088498878FFF7D6FA02208549891E0870B9
:10A2000084488078887001204870084601F084FFF7
:10A2100053E053E041E07F484078012815D17D4963
:10A220008978002901D0012100E000210846FFF7CC
:10A23000A9FA03207649891E0870764880788870CC
:10A2400001204870084601F067FF36E02BE028E067
:10A2500028E07048407805281ED100210091019126
:10A2600005226C49891C6846FCF718F8019900988A
:10A27000FFF770FA05206649891E087005226549B6
:10A28000891C6348FCF70AF805206149891E48705B
:10A29000084601F041FF00BF0FE0002000F08AFEF9
:10A2A0000BE000BF00BF00BF5A4800F005F90028CE
:10A2B00002D0584801F030FF00BF00BF01F05EFF40
:10A2C0007D21C900884250D901F058FF53490968DF
:10A2D0000A31884232D3002701F050FF4F4908600D
:10A2E00013204B49891E08700920487000F050FD6A
:10A2F000012148404840074300F0A2FE002801D059
:10A30000022000E0002007434148801E877000F0D3
:10A310001DFD0190042201A93D48401CFBF7BEFF32
:10A3200000F008FD0190042201A93948401DFBF707
:10A33000B5FF3748801E01F0EFFE00BF01F01EFFA1
:10A34000374909680A3188420FD301F017FF3449B1
:10A35000086004202E49891E0870012048700846B4
:10A360002A490978817001F0D7FEFDF7D9FD04462E
:10A3700000F066FE064600F0E3FC012807D0012C41
:10A3800005D1002E03D1002000F014FE32E000F0D1
:10A39000D7FC012807D0012C05D1002E03D00020C6
:10A3A00000F008FE26E000F0CBFC012808D1012CCB
:10A3B00006D1002000F03EFE042000F0FBFD19E075
:10A3C00000F0BEFC01280AD116480078002806D00B
:10A3D000002000F02FFE042000F0ECFD0AE000F069
:10A3E000AFFC012806D1022C04D100F023FE04208A
:10A3F00000F0E0FD00200B490870FDF7B9FD00F00A
:10A40000FFFC00BF2FE60000BE2300200C20002030
:10A410009C23002078230020E62300200420002035
:10A420000820002000200020F8B505460E461446FE
:10A430002879801CC7B22078801CC0191F2801DD34
:10A440000C20F8BD781CC1B22278501C2070B15489
:10A45000FF212278501C2070B1542278911928884D
:10A4600002F0FEF9217840182070A88800280EDD3F
:10A47000A868002801D10720E3E7AA882378981963
:10A48000A968FBF70BFF207829794018207000207D
:10A49000D7E7000010B500F027FA0A2000F06CF8AA
:10A4A00000F04EFB0249086001200249087010BD0F
:10A4B000B0220020AC220020F8B504460026A51CDE
:10A4C0002A480078002800D1F8BD2078202806D03E
:10A4D00021280BD0222821D0232843D13CE0244836
:10A4E0000078A0700120607001263BE028782049A8
:10A4F000096888420CDA2878822250431D4A811864
:10A500000822681CFBF7CAFE09206070012604E0DF
:10A51000FF20A07001206070012623E028781449F4
:10A520000968884212DA287882225043114A80183A
:10A530000830AB786F781A023A4381181D22E81C64
:10A54000FBF7ACFE20206070012604E0FF20A07025
:10A5500001206070012605E0FE20A07001206070DF
:10A56000012600BF00BF3046AEE70000AC2200204D
:10A57000B0220020E42E002070B5044601F0FEFD5C
:10A58000054600BF01F0FAFD29198842FAD370BDD3
:10A59000F7B584B004460F4606980678B01C1F280D
:10A5A00003DC6078801C1F2802DD0C2007B0F0BDA2
:10A5B0001F20801B801E85B20295B11C781802A94D
:10A5C0007DDF03900398002801D00398EEE7207800
:10A5D000022808D168460089A84204DC09200190BD
:10A5E000684605890BE0082001906078002804D0B7
:10A5F0006078A84201DC657801E068460589681C3E
:10A60000C2B23046711CCEB23A543046721CD6B239
:10A610000199395406980178A81C0818C1B2069807
:10A6200001700020C2E7014600207047024600206A
:10A63000704702460020704710B58A0005231B07AB
:10A64000072424021B1984001A5110BD10B58A007A
:10A6500005231B07072424021B1984001A5110BD6F
:10A6600001210522120707231B02D2188300D150B3
:10A670007047000001218140014AD160704700000D
:10A6800000050050014603480069C840C007C00FDC
:10A69000704700000005005001218140014A91608F
:10A6A000704700000005005001218140014A91607F
:10A6B000704700000005005010B50446208810289F
:10A6C00004D0112803D019280AD103E009E0FCF7CF
:10A6D0002BFE06E0A079002801D1FCF725FE00E062
:10A6E00000BF00BF10BD000010B504460822A11D28
:10A6F0000248FBF7D3FDFDF77FFF10BDC02200200D
:10A7000010B50446A08809490880082221460E3168
:10A710000748FBF7C3FD0020064908700648C089BA
:10A72000002801D1FDF768FF10BD0000BE22002007
:10A73000C0220020BC220020682F002070B50546F2
:10A740000020C0430A49088000200A4908700A48CE
:10A750000068FCF743FF0446002C07D007488069D7
:10A76000002803D0054881692046884770BD000055
:10A77000BE220020BC220020C8220020682F00201A
:10A7800070B50546AC1D20881249C989884220D180
:10A79000208B02281DD100BF00BFA17EE27E1202E5
:10A7A00011430846C107C90F002902D0FDF724FF55
:10A7B0000FE009480068FCF711FF0646002E07D09D
:10A7C00004488069002803D00248816930468847E0
:10A7D00000BF70BD682F0020C82200203EB505468E
:10A7E000284600F03BFA002837D05520694608700B
:10A7F000012408E0E8001B494118601E085C694616
:10A800000855601CC4B2092CF4DB09236A460021F8
:10A81000284600F029F800281BD001240CE0E800AD
:10A8200010494118601E085C6946095D884201D0E4
:10A8300000203EBD601CC4B2092CF0DB68460078E5
:10A84000552804D0112000F06DF90020F1E7012017
:10A85000EFE70C2000F066F902E0012000F062F959
:10A860000020E6E7E4280020FFB581B00F4615463A
:10A870001E46A02E05DD0B2000F054F9002005B087
:10A88000F0BD002F09D0019800F0E8F9002804D1AC
:10A89000012000F047F90020F1E7002406E0295DDF
:10A8A000019800F0C3F92855601CC4B2B442F6DB2D
:10A8B0000120E4E770B504460D4616460020A100CD
:10A8C000064A5050A100064A5050A100054A505077
:10A8D00032462946204600F03FF870BD242800206B
:10A8E000A42800206428002010B514480521090779
:10A8F00007221202891848620920FFF7D5FE104886
:10A900000521090707221202891808620820FFF7AB
:10A91000CBFE00200B4908610F2000040A49486063
:10A9200001210920FCF79CFA092001218140074AF6
:10A93000116000BF06480749086010BD0102000011
:10A9400001060000009500400093004000E100E097
:10A950000808000000920040F7B586B004460126C2
:10A96000002003900025012702900021204601F0DD
:10A9700091F8A0006749085800286FD1079800286F
:10A9800010D0204600F06AF900280BD1A100624ADD
:10A990005050A100614A5050012000F0C3F800203F
:10A9A00009B0F0BD0898002804D0EC21204600F042
:10A9B00089F903E0F021204600F084F900BF01216D
:10A9C000204600F005F94006000E059001212046C2
:10A9D00000F0FEF805990843C0B2059005980328D9
:10A9E00000D16BE00598002806DD0598C007C00F70
:10A9F00001214840049024E0A00047490858B04293
:10AA00000BDDE00046494018405D3840002801DD7C
:10AA1000012000E00020049008E0A0003E49085812
:10AA2000B04201D1012000E00020049004980028E9
:10AA300007D10396039E092E03DAA100374A039833
:10AA40005050049801280AD1E00035494018405D73
:10AA50003843E100324A8918485509E045E0E000F2
:10AA60002F494018405DB843E1002D4A89184855E8
:10AA70002046049900F0ACF8701CC6B27806070EA8
:10AA8000002F19D1E0002649085C4006400E1C2822
:10AA900007D1012D05D17F212046FEF715FC01903D
:10AAA00007E0E0001E4A8018415D2046FEF70CFCDE
:10AAB0000190681CC5B20127082D80DB00BF412E24
:10AAC00013DB0198002810D1A100134A03985050BD
:10AAD000A00011460858002801D1012000E0002004
:10AAE000A1000C4A5050012002900298002804D086
:10AAF000E0000B49085C00280AD10020A100064AAA
:10AB00005050A100034A5050A100044A50500290F6
:10AB1000029845E7A428002024280020642800206B
:10AB2000E428002010B50446FBF764FB046010BD68
:10AB300010B50446FF21204600F078F810BD000053
:10AB400010B50024002000F089F80A20FFF714FD5A
:10AB5000002201211046FFF7ADFE002815D000208D
:10AB6000FDF762FA641C08E02046FDF75DFA08482C
:10AB70000068012800DB07E0641C00220121104668
:10AB8000FFF7EAFE0028EFD100BF204610BD00000D
:10AB9000B022002070B50346002A0BD0002006E04A
:10ABA000DC000A4D6419245C0C54441CE0B20828F3
:10ABB000F6DB0AE0002006E00C5CDD00034EAD1978
:10ABC0002C54441CE0B20828F6DB70BDE4280020B9
:10ABD00010B502460120114B18600840002801D032
:10ABE000112000E0A0200E4B1524A4011B19586071
:10ABF00030200B4B1B199860FF204130084B1B196C
:10AC0000D8600120074B1870054B186000BF05483D
:10AC100000780028FBD10448006810BD4095004032
:10AC2000009000403421002038210020F0B5074674
:10AC30000D46002400260CE0641029463846FFF734
:10AC4000C7FF002801D0802000E0002004436D10E1
:10AC5000761C082EF0DB2046F0BD000001460120E6
:10AC6000144A1060144AD060144A10600F2080010A
:10AC7000114A15239B01D2185060452000010E4A4D
:10AC8000D21890600F20C0010B4AD218D06001206A
:10AC90000B4A1070084A106000BF0948007800286D
:10ACA000FBD104480068002801D101207047002032
:10ACB000FCE7000038210020009000404095004053
:10ACC0003421002030B505460C4621462846FFF7C2
:10ACD000ADFFA04201D1012030BD0020FCE7000003
:10ACE00010B504461C216143104A891808461130EA
:10ACF0000621FBF730FB1C2161430C4A8818102108
:10AD0000FBF729FBFF211C206043084A80180174CF
:10AD10001C206043801881760021C9431C206043B9
:10AD200080180183204601F0D7FD10BD603000205F
:10AD3000704700000148006870470000142100209F
:10AD400001480078704700000C210020014800688D
:10AD5000704700001021002010B501200A4908703A
:10AD600008460078094908700320FFF779FC0320A2
:10AD7000FFF780FC03210220FFF768FC032101207C
:10AD8000FFF764FC10BD00000C2100200D21002005
:10AD900010B50120FFF776FC002801D1012010BD7D
:10ADA0000020FCE710B50446002C0BD1802006499A
:10ADB000C86000210520FFF749FC01203CDF34DF9B
:10ADC00000BFFEE710BD00000005005010B50446AE
:10ADD000002C09D00848094908600020FFF74AFC08
:10ADE0000320FFF759FC06E001210020FFF72EFCAD
:10ADF0000320FFF73FFC10BD0106000000070050D4
:10AE0000F0B58BB001F0BAF93F490968401A022841
:10AE100036D901F0B3F93C4908603C4800783C4918
:10AE20000978884213DD3A480078401C3849087098
:10AE300008460078800037490858002820D0344858
:10AE4000007880000A4611580120884718E02F48F2
:10AE500000782F490978884212DA2D48007880005E
:10AE60002C490858002806D02948007880000A4656
:10AE700011580020884726480078401E2449087051
:10AE800001F07CF924490968401A052839D923487A
:10AE90000068002835D12248806880B20A9001F00D
:10AEA0006DF91D4908601F480078002828D10A98CC
:10AEB000FBF791FD044600221B4BFBF73FFB019182
:10AEC0000090FBF7FDFA0390FBF7ACFE0646174A2D
:10AED000174BFBF783FD174A174B05910490FBF7BF
:10AEE0007DFD0022154B07910690FBF777FD099138
:10AEF0000890FBF7E5FA12490860002000F060F8BE
:10AF000000BF0BB0F0BD0000182100200D21002073
:10AF10000C210020F4CA01001C2100200074004014
:10AF2000007500400F21002000F88F403333333389
:10AF30003333F33F9A999999999909400000F83F62
:10AF40001021002010B50446002C2AD00020FFF765
:10AF5000A3FB1D20FFF784FB1D20FFF79DFB0D20A9
:10AF6000FFF77EFB0C20FFF77BFB0D20FFF794FB28
:10AF70000C20FFF77FFB0E20FFF772FB0E20FFF780
:10AF800079FB1320FFF76CFB1320FFF785FB0520EF
:10AF9000FFF766FB0520FFF76DFB002000F010F8BF
:10AFA00006E001211D20FFF751FB0020FFF762FBA7
:10AFB00010BD000001490870704700000D210020FD
:10AFC000002802D10749084A5160012802D10749E7
:10AFD000054A5160064908700121034A1160054A7B
:10AFE0001160704706200000007500400A800000D4
:10AFF0000F2100200070004010B50446002C10D036
:10B000001520FFF72DFB0A480078002803D01520F3
:10B01000FFF742FB02E01520FFF72CFB01F078FB65
:10B0200005E001211520FFF711FB01F031FB10BDF8
:10B030000E21002001490870704700000E210020F9
:10B0400010B50220FFF71EFB002801D0012010BD23
:10B050000020FCE7F8B505460E46002400BF002E90
:10B0600001D0012000E000200746002F05D100BFDD
:10B070001EA24B21FCF776F900BF00BF00BF002DD8
:10B0800001D0012000E000200746002F05D100BFBD
:10B0900016A24C21FCF766F900BF00BF32782046AB
:10B0A000611CCCB22A542919708801F0E2FB001906
:10B0B000C4B22919B08801F0DCFB0019C4B2291907
:10B0C000F08801F0D6FB0019C4B200BF072C01D1F3
:10B0D000012000E000200746002F05D100BF03A299
:10B0E0005421FCF73FF900BF00BFF8BD2E2E5C6E67
:10B0F000726635315F73646B5C6E726635313832FF
:10B10000325C536F757263655C626C655C626C6522
:10B110005F73657276696365735C626C655F6469B1
:10B12000732E63003CB5034600BF2048007800281A
:10B1300001D108203CBD00BF002B01D10E20F9E752
:10B14000002A01D10E20F5E71868002805D11868FB
:10B150000001174C2058002801D10720EAE75C685D
:10B16000186801940090019C18680001104D401966
:10B170000089484320180190009800012C460019CE
:10B180004089009C2401641924896043009C2401A7
:10B19000641964680019019CA04201D80720C9E71E
:10B1A000019C0098546010600020C3E762230020D7
:10B1B00050300020F8B504460D4600BF27480078FF
:10B1C000002801D10820F8BD00BF002C01D10E20BD
:10B1D000F9E72068002805D12068000120490858B7
:10B1E000002801D10720EEE7206800011C49401823
:10B1F0004089216809011A4A891809894843216848
:10B2000009018918496840186168884201D80720F7
:10B21000D9E76068FEF7C6FD002801D11020D2E70B
:10B2200023681B010E4FDB1962685B68D01A226825
:10B2300012013B46D2181189FBF791F8002901D081
:10B240000720C0E700202B4602462146009004203C
:10B25000FDF784F806463046B5E70000622300207B
:10B260005030002070B5FDF7C1F800201C4908805F
:10B2700001200007006980B2E521484319490860B0
:10B2800000201949088000BF0DE000210201174B82
:10B2900099500201D21811810201D2189181020144
:10B2A000D2185181401C0028EFD0082010490870A6
:10B2B0004206126991B24206126992B2E6235A43DB
:10B2C0001046FBF756F8054620DF0446002C04D153
:10B2D00001200849887008490870204670BD0000A8
:10B2E000582300205C2300206023002050300020E1
:10B2F00063230020842F002062230020FFB581B04B
:10B300000C4615461E4600BF35480078002802D17D
:10B31000082005B0F0BD00BF002C01D10E20F8E7D9
:10B320000198002801D10E20F3E72068002805D1FC
:10B33000206800012B490858002801D10720E8E7C0
:10B340002068000127494018408921680901254AE1
:10B3500089180989484321680901891849684018F2
:10B360006168884201D80720D3E7002D06D0206805
:10B3700000011C4940180089A84201DA0720C8E7EB
:10B38000A81921680901174A89180989884201DD2D
:10B390000720BEE70198FEF705FD002804D03046DF
:10B3A000FEF700FD002801D11020B2E76068FEF72B
:10B3B000F9FC002801D11020ABE7606881192A460A
:10B3C0000198FAF76BFF00952068000105490F58B6
:10B3D000002203212046019BB847002099E7000086
:10B3E0006223002050300020F8B504460D4600BF0F
:10B3F0004F480078002801D10820F8BD00BF002C7C
:10B4000001D10E20F9E7002D01D10E20F5E72068CB
:10B41000002801D10E20F0E7A08801210907096961
:10B4200089B2884202DCA088102801DA0720E4E70C
:10B43000E08800281FD0E088A18848433D4909687A
:10B44000411801200007006980B2E6225043814282
:10B4500011D8E088A188484301210907096989B208
:10B4600088420ADDA18801221207126990B2FAF718
:10B4700080FF002901D00720BFE720798007800FD7
:10B48000002801D00720B8E72B480088012801D107
:10B490000420B2E7284800882860264800686860D1
:10B4A000254909880901254A8918686848602249A0
:10B4B0000988090120685050A0881F49098809019E
:10B4C00089180881E0881C49098809018918488180
:10B4D0000027A688E1884E4300BF781C87B2012070
:10B4E0000007006980B2B04205D201200007006960
:10B4F00080B2361A00E0002601200007006980B201
:10B500000C49096840180B490860012000070069D0
:10B5100080B2B042E1D908480088000107494018CC
:10B52000878105480088401C03490880002064E7A3
:10B53000622300205C23002058230020503000208C
:10B54000F8B504460E4615461F4600BF2F48007842
:10B55000002801D10820F8BD00BF002E01D10E2027
:10B56000F9E7002C01D10E20F5E72068002805D16D
:10B570002068000126490858002801D10720EAE781
:10B580002068000122494018408921680901204AA9
:10B5900089180989484321680901891849684018B0
:10B5A0006168884201D80720D5E7002D06D02068C1
:10B5B0000001174940180089A84201DA0720CAE7AC
:10B5C000E81921680901124A89180989884201DDB0
:10B5D0000720C0E73046FEF7E5FB002804D03846D8
:10B5E000FEF7E0FB002801D11020B4E76068FEF709
:10B5F000D9FB002801D11020ADE72B463246214669
:10B6000002200097FCF7AAFEA5E7000062230020B5
:10B6100050300020FEB505460026504880780128AD
:10B620007ED100204D4988704D480078082811D1FE
:10B63000022D03D100204A49087002E00020494948
:10B640000870FCF75BFE0646002E02D03046FBF782
:10B65000A7FEFEBD022D02D0032D79D174E03F4834
:10B660000078142148433D49091D44183E4800888C
:10B67000401C3D4908802078022807D108460088F0
:10B6800080026188884201DB012000E0002007463B
:10B690002078052805D132480078072801D10120FB
:10B6A00000E0002002902078042805D12C48007882
:10B6B000072801D1012000E0002001902078042813
:10B6C0000BD12948008880026188884205DB244824
:10B6D0000078002801D1012000E0002000900298AD
:10B6E000002807D10198002804D10098002801D132
:10B6F000002F1FD000201A4908703046FBF750FE7B
:10B7000016490878FCF70CFE0020174908801348FA
:10B710004078401E1149487008460078401C00E0FF
:10B7200019E00870084600780A2803DB084600780C
:10B730000A380870FCF7E2FD0646002E02D03046BB
:10B74000FBF72EFE05E003E00D20FBF729FE00E0ED
:10B7500000BF00BF00BF00BF7BE70000842F0020B8
:10B76000632300206223002060230020F8B50446F4
:10B770000E4615461F4600BF2F480078002801D10D
:10B780000820F8BD00BF002E01D10E20F9E7002CE3
:10B7900001D10E20F5E72068002805D120680001BE
:10B7A00026490858002801D10720EAE7206800014F
:10B7B00022494018408921680901204A89180989CD
:10B7C000484321680901891849684018616888421E
:10B7D00001D80720D5E7002D06D0206800011749C1
:10B7E00040180089A84201DA0720CAE7E819216851
:10B7F0000901124A89180989884201DD0720C0E73A
:10B800003046FEF7CFFA002804D03846FEF7CAFAD1
:10B81000002801D11020B4E76068FEF7C3FA0028C1
:10B8200001D11020ADE72B46324621460520009776
:10B83000FCF794FDA5E700006223002050300020B3
:10B8400001484068704700000015014010B50446EB
:10B850000348846003211120FBF73EFB10BD00006C
:10B860000015014010B5012000040A49486009494B
:10B87000403948601120FBF75DFA1120FBF764FAAC
:10B880000120054908602F20FAF75EFC01200349DA
:10B89000087010BD401301400010014054230020E7
:10B8A00010B51120012181400E4A116000BF012016
:10B8B00000040D4988600C494039886001200B491B
:10B8C00048602F20FAF740FC0120084988600020DA
:10B8D000074908602F20FAF737FC00200549087057
:10B8E00010BD000080E100E0401301400010014065
:10B8F00040230020542300201E20104908800846C1
:10B90000807840084000401C8870084680780221FA
:10B9100088430A498870084680781C2188430C3087
:10B92000064988700846807820218843034988703A
:10B930000720C870102008717047000014200020F4
:10B94000FEB507460E461446386B002801D1072085
:10B95000FEBD0020019032E0396B0C22019850436B
:10B960000D182879801CC0B200900098401CC1B20C
:10B970002278501C2070B15416212278501C20705F
:10B98000B15422789119288800F06AFF2178401874
:10B990002070A88800280EDDA868002801D10720A3
:10B9A000D6E7AA8823789819A968FAF777FC20784F
:10B9B0002979401820700198401CC0B201903420B1
:10B9C000C15D01988142C7DC0020C1E710B596B087
:10B9D000274B0FCB01AC0FC405A901A863DF0446B8
:10B9E00000BF2346002B06D000BF22A2FF212B312F
:10B9F0001846FBF7B7FC00BF6846007DFBF798FFD1
:10BA0000402106A8FAF7A9FC1FA106A8FCF706FA30
:10BA100000BF10A8007D01090901491C10A801758B
:10BA2000007DF0218843103010A9087500BF00BFC9
:10BA300015A840780009000115A9487015A840789C
:10BA4000F021884315A9487000BF06A8FCF7C4F888
:10BA5000044600BF2346002B06D000BF05A2FF21ED
:10BA600038311846FBF77EFC00BF16B010BD000051
:10BA7000E4CA01002E2E5C7372635C626C655C62CA
:10BA80006C652E63000000004269746372617A6520
:10BA900000000000C2B2014B995470478429002075
:10BAA0000C480068282148430B4940180B4948605E
:10BAB0000B4800680421884309490860084600686B
:10BAC0000821084306490860012006490870064914
:10BAD000086170478422002094290020001500404E
